{
  "_format": "hh-sol-artifact-1",
  "contractName": "LandContract",
  "sourceName": "contracts/LandContract.sol",
  "abi": [
    {
      "inputs": [
        {
          "internalType": "address",
          "name": "Officer",
          "type": "address"
        }
      ],
      "stateMutability": "nonpayable",
      "type": "constructor"
    },
    {
      "inputs": [
        {
          "internalType": "uint256",
          "name": "",
          "type": "uint256"
        }
      ],
      "name": "addLandRequests",
      "outputs": [
        {
          "internalType": "address",
          "name": "owner",
          "type": "address"
        },
        {
          "internalType": "string",
          "name": "land",
          "type": "string"
        },
        {
          "internalType": "bool",
          "name": "approved",
          "type": "bool"
        },
        {
          "internalType": "string",
          "name": "note",
          "type": "string"
        },
        {
          "internalType": "uint256",
          "name": "userIndex",
          "type": "uint256"
        },
        {
          "internalType": "bool",
          "name": "processed",
          "type": "bool"
        }
      ],
      "stateMutability": "view",
      "type": "function"
    },
    {
      "inputs": [
        {
          "internalType": "address",
          "name": "executorAddress",
          "type": "address"
        }
      ],
      "name": "addWillExecutionRequest",
      "outputs": [],
      "stateMutability": "nonpayable",
      "type": "function"
    },
    {
      "inputs": [
        {
          "internalType": "address",
          "name": "officer",
          "type": "address"
        }
      ],
      "name": "changeLandOfficer",
      "outputs": [],
      "stateMutability": "nonpayable",
      "type": "function"
    },
    {
      "inputs": [],
      "name": "executeWill",
      "outputs": [],
      "stateMutability": "nonpayable",
      "type": "function"
    },
    {
      "inputs": [
        {
          "internalType": "address",
          "name": "user",
          "type": "address"
        }
      ],
      "name": "getAddLandRequest",
      "outputs": [
        {
          "components": [
            {
              "internalType": "address",
              "name": "owner",
              "type": "address"
            },
            {
              "internalType": "string",
              "name": "land",
              "type": "string"
            },
            {
              "internalType": "bool",
              "name": "approved",
              "type": "bool"
            },
            {
              "internalType": "string",
              "name": "note",
              "type": "string"
            },
            {
              "internalType": "uint256",
              "name": "userIndex",
              "type": "uint256"
            },
            {
              "internalType": "bool",
              "name": "processed",
              "type": "bool"
            }
          ],
          "internalType": "struct LandContract.AddLandRequest[]",
          "name": "",
          "type": "tuple[]"
        }
      ],
      "stateMutability": "view",
      "type": "function"
    },
    {
      "inputs": [],
      "name": "getAddLandRequests",
      "outputs": [
        {
          "components": [
            {
              "internalType": "address",
              "name": "owner",
              "type": "address"
            },
            {
              "internalType": "string",
              "name": "land",
              "type": "string"
            },
            {
              "internalType": "bool",
              "name": "approved",
              "type": "bool"
            },
            {
              "internalType": "string",
              "name": "note",
              "type": "string"
            },
            {
              "internalType": "uint256",
              "name": "userIndex",
              "type": "uint256"
            },
            {
              "internalType": "bool",
              "name": "processed",
              "type": "bool"
            }
          ],
          "internalType": "struct LandContract.AddLandRequest[]",
          "name": "",
          "type": "tuple[]"
        }
      ],
      "stateMutability": "view",
      "type": "function"
    },
    {
      "inputs": [
        {
          "internalType": "string",
          "name": "land",
          "type": "string"
        }
      ],
      "name": "getLandOwner",
      "outputs": [
        {
          "internalType": "address",
          "name": "",
          "type": "address"
        }
      ],
      "stateMutability": "view",
      "type": "function"
    },
    {
      "inputs": [],
      "name": "getNewUserRequests",
      "outputs": [
        {
          "components": [
            {
              "internalType": "address",
              "name": "userAddress",
              "type": "address"
            },
            {
              "internalType": "address",
              "name": "nominee",
              "type": "address"
            },
            {
              "internalType": "string",
              "name": "aadhar",
              "type": "string"
            },
            {
              "internalType": "bool",
              "name": "approved",
              "type": "bool"
            },
            {
              "internalType": "string",
              "name": "note",
              "type": "string"
            },
            {
              "internalType": "bool",
              "name": "processed",
              "type": "bool"
            },
            {
              "internalType": "uint256",
              "name": "userIndex",
              "type": "uint256"
            }
          ],
          "internalType": "struct LandContract.NewUserRequest[]",
          "name": "",
          "type": "tuple[]"
        }
      ],
      "stateMutability": "view",
      "type": "function"
    },
    {
      "inputs": [
        {
          "internalType": "address",
          "name": "user",
          "type": "address"
        }
      ],
      "name": "getOpenNewUserRequests",
      "outputs": [
        {
          "components": [
            {
              "internalType": "address",
              "name": "userAddress",
              "type": "address"
            },
            {
              "internalType": "address",
              "name": "nominee",
              "type": "address"
            },
            {
              "internalType": "string",
              "name": "aadhar",
              "type": "string"
            },
            {
              "internalType": "bool",
              "name": "approved",
              "type": "bool"
            },
            {
              "internalType": "string",
              "name": "note",
              "type": "string"
            },
            {
              "internalType": "bool",
              "name": "processed",
              "type": "bool"
            },
            {
              "internalType": "uint256",
              "name": "userIndex",
              "type": "uint256"
            }
          ],
          "internalType": "struct LandContract.NewUserRequest[]",
          "name": "",
          "type": "tuple[]"
        }
      ],
      "stateMutability": "view",
      "type": "function"
    },
    {
      "inputs": [
        {
          "internalType": "address",
          "name": "user",
          "type": "address"
        }
      ],
      "name": "getUserInfo",
      "outputs": [
        {
          "components": [
            {
              "internalType": "address",
              "name": "userAddress",
              "type": "address"
            },
            {
              "internalType": "address",
              "name": "nominee",
              "type": "address"
            },
            {
              "internalType": "string[]",
              "name": "landsOwned",
              "type": "string[]"
            },
            {
              "internalType": "string",
              "name": "aadhar",
              "type": "string"
            },
            {
              "components": [
                {
                  "internalType": "address",
                  "name": "owner",
                  "type": "address"
                },
                {
                  "internalType": "string",
                  "name": "land",
                  "type": "string"
                },
                {
                  "internalType": "bool",
                  "name": "approved",
                  "type": "bool"
                },
                {
                  "internalType": "string",
                  "name": "note",
                  "type": "string"
                },
                {
                  "internalType": "uint256",
                  "name": "userIndex",
                  "type": "uint256"
                },
                {
                  "internalType": "bool",
                  "name": "processed",
                  "type": "bool"
                }
              ],
              "internalType": "struct LandContract.AddLandRequest[]",
              "name": "openAddLandRequests",
              "type": "tuple[]"
            },
            {
              "internalType": "uint256",
              "name": "totalOpenAddLandRequests",
              "type": "uint256"
            },
            {
              "components": [
                {
                  "internalType": "address",
                  "name": "userAddress",
                  "type": "address"
                },
                {
                  "internalType": "address",
                  "name": "nominee",
                  "type": "address"
                },
                {
                  "internalType": "string",
                  "name": "aadhar",
                  "type": "string"
                },
                {
                  "internalType": "bool",
                  "name": "approved",
                  "type": "bool"
                },
                {
                  "internalType": "string",
                  "name": "note",
                  "type": "string"
                },
                {
                  "internalType": "bool",
                  "name": "processed",
                  "type": "bool"
                },
                {
                  "internalType": "uint256",
                  "name": "userIndex",
                  "type": "uint256"
                }
              ],
              "internalType": "struct LandContract.NewUserRequest[]",
              "name": "openNewUserRequests",
              "type": "tuple[]"
            },
            {
              "internalType": "uint256",
              "name": "totalNewUserRequests",
              "type": "uint256"
            }
          ],
          "internalType": "struct LandContract.User",
          "name": "",
          "type": "tuple"
        }
      ],
      "stateMutability": "view",
      "type": "function"
    },
    {
      "inputs": [
        {
          "internalType": "address",
          "name": "user",
          "type": "address"
        }
      ],
      "name": "getUserLands",
      "outputs": [
        {
          "internalType": "string[]",
          "name": "",
          "type": "string[]"
        }
      ],
      "stateMutability": "view",
      "type": "function"
    },
    {
      "inputs": [],
      "name": "landOfficer",
      "outputs": [
        {
          "internalType": "address",
          "name": "",
          "type": "address"
        }
      ],
      "stateMutability": "view",
      "type": "function"
    },
    {
      "inputs": [
        {
          "internalType": "string",
          "name": "",
          "type": "string"
        }
      ],
      "name": "landOwner",
      "outputs": [
        {
          "internalType": "address",
          "name": "",
          "type": "address"
        }
      ],
      "stateMutability": "view",
      "type": "function"
    },
    {
      "inputs": [],
      "name": "manager",
      "outputs": [
        {
          "internalType": "address",
          "name": "",
          "type": "address"
        }
      ],
      "stateMutability": "view",
      "type": "function"
    },
    {
      "inputs": [
        {
          "internalType": "uint256",
          "name": "",
          "type": "uint256"
        }
      ],
      "name": "newUserRequests",
      "outputs": [
        {
          "internalType": "address",
          "name": "userAddress",
          "type": "address"
        },
        {
          "internalType": "address",
          "name": "nominee",
          "type": "address"
        },
        {
          "internalType": "string",
          "name": "aadhar",
          "type": "string"
        },
        {
          "internalType": "bool",
          "name": "approved",
          "type": "bool"
        },
        {
          "internalType": "string",
          "name": "note",
          "type": "string"
        },
        {
          "internalType": "bool",
          "name": "processed",
          "type": "bool"
        },
        {
          "internalType": "uint256",
          "name": "userIndex",
          "type": "uint256"
        }
      ],
      "stateMutability": "view",
      "type": "function"
    },
    {
      "inputs": [
        {
          "internalType": "string",
          "name": "land",
          "type": "string"
        }
      ],
      "name": "requestNewLand",
      "outputs": [],
      "stateMutability": "nonpayable",
      "type": "function"
    },
    {
      "inputs": [
        {
          "internalType": "string",
          "name": "aadhar",
          "type": "string"
        },
        {
          "internalType": "address",
          "name": "nominee",
          "type": "address"
        }
      ],
      "name": "requestNewUser",
      "outputs": [],
      "stateMutability": "nonpayable",
      "type": "function"
    },
    {
      "inputs": [
        {
          "internalType": "address",
          "name": "",
          "type": "address"
        }
      ],
      "name": "userInfo",
      "outputs": [
        {
          "internalType": "address",
          "name": "userAddress",
          "type": "address"
        },
        {
          "internalType": "address",
          "name": "nominee",
          "type": "address"
        },
        {
          "internalType": "string",
          "name": "aadhar",
          "type": "string"
        },
        {
          "internalType": "uint256",
          "name": "totalOpenAddLandRequests",
          "type": "uint256"
        },
        {
          "internalType": "uint256",
          "name": "totalNewUserRequests",
          "type": "uint256"
        }
      ],
      "stateMutability": "view",
      "type": "function"
    },
    {
      "inputs": [
        {
          "internalType": "uint256",
          "name": "reqIndex",
          "type": "uint256"
        },
        {
          "internalType": "bool",
          "name": "approved",
          "type": "bool"
        },
        {
          "internalType": "string",
          "name": "note",
          "type": "string"
        }
      ],
      "name": "verifyAddLandRequest",
      "outputs": [],
      "stateMutability": "nonpayable",
      "type": "function"
    },
    {
      "inputs": [
        {
          "internalType": "uint256",
          "name": "reqInd",
          "type": "uint256"
        },
        {
          "internalType": "bool",
          "name": "approved",
          "type": "bool"
        },
        {
          "internalType": "string",
          "name": "note",
          "type": "string"
        }
      ],
      "name": "verifyNewUser",
      "outputs": [],
      "stateMutability": "nonpayable",
      "type": "function"
    },
    {
      "inputs": [
        {
          "internalType": "uint256",
          "name": "",
          "type": "uint256"
        }
      ],
      "name": "willExecutionRequests",
      "outputs": [
        {
          "internalType": "address",
          "name": "",
          "type": "address"
        }
      ],
      "stateMutability": "view",
      "type": "function"
    }
  ],
  "bytecode": "0x60806040523480156200001157600080fd5b5060405162004aa438038062004aa4833981810160405281019062000037919062000129565b336000806101000a81548173ffffffffffffffffffffffffffffffffffffffff021916908373ffffffffffffffffffffffffffffffffffffffff16021790555080600160006101000a81548173ffffffffffffffffffffffffffffffffffffffff021916908373ffffffffffffffffffffffffffffffffffffffff160217905550506200015b565b600080fd5b600073ffffffffffffffffffffffffffffffffffffffff82169050919050565b6000620000f182620000c4565b9050919050565b6200010381620000e4565b81146200010f57600080fd5b50565b6000815190506200012381620000f8565b92915050565b600060208284031215620001425762000141620000bf565b5b6000620001528482850162000112565b91505092915050565b614939806200016b6000396000f3fe608060405234801561001057600080fd5b50600436106101375760003560e01c80636386c1c7116100b85780639be636911161007c5780639be6369114610381578063a5b83635146103b1578063ae8a2ef6146103bb578063ca207df1146103eb578063f0016dfb14610409578063fad63e5c1461042557610137565b80636386c1c7146102ac57806365860195146102dc57806383a99014146102f857806389301e1b1461032d57806394e5164c1461036357610137565b80633a8c2d10116100ff5780633a8c2d10146101f657806344cefff814610212578063472abd5c1461022e578063481c6a751461025e57806348c24e111461027c57610137565b80631959a0021461013c5780631af6d2971461017057806326cc9bec1461018c57806328bf5ef5146101aa5780632d0bc5c4146101da575b600080fd5b61015660048036038101906101519190613630565b610455565b604051610167959493929190613715565b60405180910390f35b61018a60048036038101906101859190613630565b610553565b005b610194610611565b6040516101a19190613957565b60405180910390f35b6101c460048036038101906101bf9190613630565b610880565b6040516101d19190613a3b565b60405180910390f35b6101f460048036038101906101ef9190613bea565b61099b565b005b610210600480360381019061020b9190613c59565b610efa565b005b61022c60048036038101906102279190613ca2565b61120b565b005b61024860048036038101906102439190613630565b6115cc565b6040516102559190613e50565b60405180910390f35b610266611827565b6040516102739190613e72565b60405180910390f35b61029660048036038101906102919190613c59565b61184b565b6040516102a39190613e72565b60405180910390f35b6102c660048036038101906102c19190613630565b611894565b6040516102d391906140e4565b60405180910390f35b6102f660048036038101906102f19190613630565b611fa1565b005b610312600480360381019061030d9190614106565b61203d565b60405161032496959493929190614142565b60405180910390f35b61034760048036038101906103429190614106565b6121d3565b60405161035a97969594939291906141b1565b60405180910390f35b61036b61238f565b6040516103789190613e72565b60405180910390f35b61039b60048036038101906103969190614106565b6123b5565b6040516103a89190613e72565b60405180910390f35b6103b96123f4565b005b6103d560048036038101906103d09190613c59565b61267b565b6040516103e29190613e72565b60405180910390f35b6103f36126c3565b6040516104009190613e50565b60405180910390f35b610423600480360381019061041e9190613bea565b6128dc565b005b61043f600480360381019061043a9190613630565b612e7f565b60405161044c9190613957565b60405180910390f35b60026020528060005260406000206000915090508060000160009054906101000a900473ffffffffffffffffffffffffffffffffffffffff16908060010160009054906101000a900473ffffffffffffffffffffffffffffffffffffffff16908060030180546104c49061425d565b80601f01602080910402602001604051908101604052809291908181526020018280546104f09061425d565b801561053d5780601f106105125761010080835404028352916020019161053d565b820191906000526020600020905b81548152906001019060200180831161052057829003601f168201915b5050505050908060050154908060070154905085565b60008054906101000a900473ffffffffffffffffffffffffffffffffffffffff1673ffffffffffffffffffffffffffffffffffffffff163373ffffffffffffffffffffffffffffffffffffffff16146105ab57600080fd5b6006819080600181540180825580915050600190039060005260206000200160009091909190916101000a81548173ffffffffffffffffffffffffffffffffffffffff021916908373ffffffffffffffffffffffffffffffffffffffff16021790555050565b60606004805480602002602001604051908101604052809291908181526020016000905b8282101561087757838290600052602060002090600702016040518060e00160405290816000820160009054906101000a900473ffffffffffffffffffffffffffffffffffffffff1673ffffffffffffffffffffffffffffffffffffffff1673ffffffffffffffffffffffffffffffffffffffff1681526020016001820160009054906101000a900473ffffffffffffffffffffffffffffffffffffffff1673ffffffffffffffffffffffffffffffffffffffff1673ffffffffffffffffffffffffffffffffffffffff1681526020016002820180546107149061425d565b80601f01602080910402602001604051908101604052809291908181526020018280546107409061425d565b801561078d5780601f106107625761010080835404028352916020019161078d565b820191906000526020600020905b81548152906001019060200180831161077057829003601f168201915b505050505081526020016003820160009054906101000a900460ff161515151581526020016004820180546107c19061425d565b80601f01602080910402602001604051908101604052809291908181526020018280546107ed9061425d565b801561083a5780601f1061080f5761010080835404028352916020019161083a565b820191906000526020600020905b81548152906001019060200180831161081d57829003601f168201915b505050505081526020016005820160009054906101000a900460ff1615151515815260200160068201548152505081526020019060010190610635565b50505050905090565b6060600260008373ffffffffffffffffffffffffffffffffffffffff1673ffffffffffffffffffffffffffffffffffffffff168152602001908152602001600020600201805480602002602001604051908101604052809291908181526020016000905b828210156109905783829060005260206000200180546109039061425d565b80601f016020809104026020016040519081016040528092919081815260200182805461092f9061425d565b801561097c5780601f106109515761010080835404028352916020019161097c565b820191906000526020600020905b81548152906001019060200180831161095f57829003601f168201915b5050505050815260200190600101906108e4565b505050509050919050565b600160009054906101000a900473ffffffffffffffffffffffffffffffffffffffff1673ffffffffffffffffffffffffffffffffffffffff163373ffffffffffffffffffffffffffffffffffffffff16146109f557600080fd5b600073ffffffffffffffffffffffffffffffffffffffff166002600060058681548110610a2557610a2461428e565b5b906000526020600020906006020160000160009054906101000a900473ffffffffffffffffffffffffffffffffffffffff1673ffffffffffffffffffffffffffffffffffffffff1673ffffffffffffffffffffffffffffffffffffffff16815260200190815260200160002060000160009054906101000a900473ffffffffffffffffffffffffffffffffffffffff1673ffffffffffffffffffffffffffffffffffffffff1603610ad557600080fd5b8160058481548110610aea57610ae961428e565b5b906000526020600020906006020160020160006101000a81548160ff0219169083151502179055508060058481548110610b2757610b2661428e565b5b90600052602060002090600602016003019081610b449190614469565b50600160058481548110610b5b57610b5a61428e565b5b906000526020600020906006020160050160006101000a81548160ff021916908315150217905550816002600060058681548110610b9c57610b9b61428e565b5b906000526020600020906006020160000160009054906101000a900473ffffffffffffffffffffffffffffffffffffffff1673ffffffffffffffffffffffffffffffffffffffff1673ffffffffffffffffffffffffffffffffffffffff16815260200190815260200160002060040160058581548110610c1f57610c1e61428e565b5b90600052602060002090600602016004015481548110610c4257610c4161428e565b5b906000526020600020906006020160020160006101000a81548160ff021916908315150217905550806002600060058681548110610c8357610c8261428e565b5b906000526020600020906006020160000160009054906101000a900473ffffffffffffffffffffffffffffffffffffffff1673ffffffffffffffffffffffffffffffffffffffff1673ffffffffffffffffffffffffffffffffffffffff16815260200190815260200160002060040160058581548110610d0657610d0561428e565b5b90600052602060002090600602016004015481548110610d2957610d2861428e565b5b90600052602060002090600602016003019081610d469190614469565b5081610d5157600080fd5b6002600060058581548110610d6957610d6861428e565b5b906000526020600020906006020160000160009054906101000a900473ffffffffffffffffffffffffffffffffffffffff1673ffffffffffffffffffffffffffffffffffffffff1673ffffffffffffffffffffffffffffffffffffffff16815260200190815260200160002060020160058481548110610dec57610deb61428e565b5b9060005260206000209060060201600101908060018154018082558091505060019003906000526020600020016000909190919091509081610e2e9190614566565b5060058381548110610e4357610e4261428e565b5b906000526020600020906006020160000160009054906101000a900473ffffffffffffffffffffffffffffffffffffffff16600360058581548110610e8b57610e8a61428e565b5b9060005260206000209060060201600101604051610ea991906146dc565b908152602001604051809103902060006101000a81548173ffffffffffffffffffffffffffffffffffffffff021916908373ffffffffffffffffffffffffffffffffffffffff160217905550505050565b6000600260003373ffffffffffffffffffffffffffffffffffffffff1673ffffffffffffffffffffffffffffffffffffffff16815260200190815260200160002060050154905060006040518060c001604052803373ffffffffffffffffffffffffffffffffffffffff168152602001848152602001600015158152602001604051806020016040528060008152508152602001838152602001600015158152509050600581908060018154018082558091505060019003906000526020600020906006020160009091909190915060008201518160000160006101000a81548173ffffffffffffffffffffffffffffffffffffffff021916908373ffffffffffffffffffffffffffffffffffffffff16021790555060208201518160010190816110259190614469565b5060408201518160020160006101000a81548160ff021916908315150217905550606082015181600301908161105b9190614469565b506080820151816004015560a08201518160050160006101000a81548160ff0219169083151502179055505050600260003373ffffffffffffffffffffffffffffffffffffffff1673ffffffffffffffffffffffffffffffffffffffff16815260200190815260200160002060040181908060018154018082558091505060019003906000526020600020906006020160009091909190915060008201518160000160006101000a81548173ffffffffffffffffffffffffffffffffffffffff021916908373ffffffffffffffffffffffffffffffffffffffff16021790555060208201518160010190816111509190614469565b5060408201518160020160006101000a81548160ff02191690831515021790555060608201518160030190816111869190614469565b506080820151816004015560a08201518160050160006101000a81548160ff02191690831515021790555050506001826111c09190614722565b600260003373ffffffffffffffffffffffffffffffffffffffff1673ffffffffffffffffffffffffffffffffffffffff16815260200190815260200160002060050181905550505050565b6000600260003373ffffffffffffffffffffffffffffffffffffffff1673ffffffffffffffffffffffffffffffffffffffff16815260200190815260200160002060070154905060006040518060e001604052803373ffffffffffffffffffffffffffffffffffffffff1681526020018473ffffffffffffffffffffffffffffffffffffffff168152602001858152602001600015158152602001604051806020016040528060008152508152602001600015158152602001838152509050600481908060018154018082558091505060019003906000526020600020906007020160009091909190915060008201518160000160006101000a81548173ffffffffffffffffffffffffffffffffffffffff021916908373ffffffffffffffffffffffffffffffffffffffff16021790555060208201518160010160006101000a81548173ffffffffffffffffffffffffffffffffffffffff021916908373ffffffffffffffffffffffffffffffffffffffff16021790555060408201518160020190816113999190614469565b5060608201518160030160006101000a81548160ff02191690831515021790555060808201518160040190816113cf9190614469565b5060a08201518160050160006101000a81548160ff02191690831515021790555060c082015181600601555050600260003373ffffffffffffffffffffffffffffffffffffffff1673ffffffffffffffffffffffffffffffffffffffff16815260200190815260200160002060060181908060018154018082558091505060019003906000526020600020906007020160009091909190915060008201518160000160006101000a81548173ffffffffffffffffffffffffffffffffffffffff021916908373ffffffffffffffffffffffffffffffffffffffff16021790555060208201518160010160006101000a81548173ffffffffffffffffffffffffffffffffffffffff021916908373ffffffffffffffffffffffffffffffffffffffff160217905550604082015181600201908161150b9190614469565b5060608201518160030160006101000a81548160ff02191690831515021790555060808201518160040190816115419190614469565b5060a08201518160050160006101000a81548160ff02191690831515021790555060c082015181600601555050600260003373ffffffffffffffffffffffffffffffffffffffff1673ffffffffffffffffffffffffffffffffffffffff16815260200190815260200160002060070160008154809291906115c190614756565b919050555050505050565b6060600260008373ffffffffffffffffffffffffffffffffffffffff1673ffffffffffffffffffffffffffffffffffffffff168152602001908152602001600020600401805480602002602001604051908101604052809291908181526020016000905b8282101561181c57838290600052602060002090600602016040518060c00160405290816000820160009054906101000a900473ffffffffffffffffffffffffffffffffffffffff1673ffffffffffffffffffffffffffffffffffffffff1673ffffffffffffffffffffffffffffffffffffffff1681526020016001820180546116b99061425d565b80601f01602080910402602001604051908101604052809291908181526020018280546116e59061425d565b80156117325780601f1061170757610100808354040283529160200191611732565b820191906000526020600020905b81548152906001019060200180831161171557829003601f168201915b505050505081526020016002820160009054906101000a900460ff161515151581526020016003820180546117669061425d565b80601f01602080910402602001604051908101604052809291908181526020018280546117929061425d565b80156117df5780601f106117b4576101008083540402835291602001916117df565b820191906000526020600020905b8154815290600101906020018083116117c257829003601f168201915b50505050508152602001600482015481526020016005820160009054906101000a900460ff16151515158152505081526020019060010190611630565b505050509050919050565b60008054906101000a900473ffffffffffffffffffffffffffffffffffffffff1681565b6003818051602081018201805184825260208301602085012081835280955050505050506000915054906101000a900473ffffffffffffffffffffffffffffffffffffffff1681565b61189c6134f0565b600260008373ffffffffffffffffffffffffffffffffffffffff1673ffffffffffffffffffffffffffffffffffffffff168152602001908152602001600020604051806101000160405290816000820160009054906101000a900473ffffffffffffffffffffffffffffffffffffffff1673ffffffffffffffffffffffffffffffffffffffff1673ffffffffffffffffffffffffffffffffffffffff1681526020016001820160009054906101000a900473ffffffffffffffffffffffffffffffffffffffff1673ffffffffffffffffffffffffffffffffffffffff1673ffffffffffffffffffffffffffffffffffffffff16815260200160028201805480602002602001604051908101604052809291908181526020016000905b82821015611a645783829060005260206000200180546119d79061425d565b80601f0160208091040260200160405190810160405280929190818152602001828054611a039061425d565b8015611a505780601f10611a2557610100808354040283529160200191611a50565b820191906000526020600020905b815481529060010190602001808311611a3357829003601f168201915b5050505050815260200190600101906119b8565b505050508152602001600382018054611a7c9061425d565b80601f0160208091040260200160405190810160405280929190818152602001828054611aa89061425d565b8015611af55780601f10611aca57610100808354040283529160200191611af5565b820191906000526020600020905b815481529060010190602001808311611ad857829003601f168201915b5050505050815260200160048201805480602002602001604051908101604052809291908181526020016000905b82821015611d0f57838290600052602060002090600602016040518060c00160405290816000820160009054906101000a900473ffffffffffffffffffffffffffffffffffffffff1673ffffffffffffffffffffffffffffffffffffffff1673ffffffffffffffffffffffffffffffffffffffff168152602001600182018054611bac9061425d565b80601f0160208091040260200160405190810160405280929190818152602001828054611bd89061425d565b8015611c255780601f10611bfa57610100808354040283529160200191611c25565b820191906000526020600020905b815481529060010190602001808311611c0857829003601f168201915b505050505081526020016002820160009054906101000a900460ff16151515158152602001600382018054611c599061425d565b80601f0160208091040260200160405190810160405280929190818152602001828054611c859061425d565b8015611cd25780601f10611ca757610100808354040283529160200191611cd2565b820191906000526020600020905b815481529060010190602001808311611cb557829003601f168201915b50505050508152602001600482015481526020016005820160009054906101000a900460ff16151515158152505081526020019060010190611b23565b5050505081526020016005820154815260200160068201805480602002602001604051908101604052809291908181526020016000905b82821015611f8857838290600052602060002090600702016040518060e00160405290816000820160009054906101000a900473ffffffffffffffffffffffffffffffffffffffff1673ffffffffffffffffffffffffffffffffffffffff1673ffffffffffffffffffffffffffffffffffffffff1681526020016001820160009054906101000a900473ffffffffffffffffffffffffffffffffffffffff1673ffffffffffffffffffffffffffffffffffffffff1673ffffffffffffffffffffffffffffffffffffffff168152602001600282018054611e259061425d565b80601f0160208091040260200160405190810160405280929190818152602001828054611e519061425d565b8015611e9e5780601f10611e7357610100808354040283529160200191611e9e565b820191906000526020600020905b815481529060010190602001808311611e8157829003601f168201915b505050505081526020016003820160009054906101000a900460ff16151515158152602001600482018054611ed29061425d565b80601f0160208091040260200160405190810160405280929190818152602001828054611efe9061425d565b8015611f4b5780601f10611f2057610100808354040283529160200191611f4b565b820191906000526020600020905b815481529060010190602001808311611f2e57829003601f168201915b505050505081526020016005820160009054906101000a900460ff1615151515815260200160068201548152505081526020019060010190611d46565b5050505081526020016007820154815250509050919050565b60008054906101000a900473ffffffffffffffffffffffffffffffffffffffff1673ffffffffffffffffffffffffffffffffffffffff163373ffffffffffffffffffffffffffffffffffffffff1614611ff957600080fd5b80600160006101000a81548173ffffffffffffffffffffffffffffffffffffffff021916908373ffffffffffffffffffffffffffffffffffffffff16021790555050565b6005818154811061204d57600080fd5b90600052602060002090600602016000915090508060000160009054906101000a900473ffffffffffffffffffffffffffffffffffffffff16908060010180546120969061425d565b80601f01602080910402602001604051908101604052809291908181526020018280546120c29061425d565b801561210f5780601f106120e45761010080835404028352916020019161210f565b820191906000526020600020905b8154815290600101906020018083116120f257829003601f168201915b5050505050908060020160009054906101000a900460ff16908060030180546121379061425d565b80601f01602080910402602001604051908101604052809291908181526020018280546121639061425d565b80156121b05780601f10612185576101008083540402835291602001916121b0565b820191906000526020600020905b81548152906001019060200180831161219357829003601f168201915b5050505050908060040154908060050160009054906101000a900460ff16905086565b600481815481106121e357600080fd5b90600052602060002090600702016000915090508060000160009054906101000a900473ffffffffffffffffffffffffffffffffffffffff16908060010160009054906101000a900473ffffffffffffffffffffffffffffffffffffffff16908060020180546122529061425d565b80601f016020809104026020016040519081016040528092919081815260200182805461227e9061425d565b80156122cb5780601f106122a0576101008083540402835291602001916122cb565b820191906000526020600020905b8154815290600101906020018083116122ae57829003601f168201915b5050505050908060030160009054906101000a900460ff16908060040180546122f39061425d565b80601f016020809104026020016040519081016040528092919081815260200182805461231f9061425d565b801561236c5780601f106123415761010080835404028352916020019161236c565b820191906000526020600020905b81548152906001019060200180831161234f57829003601f168201915b5050505050908060050160009054906101000a900460ff16908060060154905087565b600160009054906101000a900473ffffffffffffffffffffffffffffffffffffffff1681565b600681815481106123c557600080fd5b906000526020600020016000915054906101000a900473ffffffffffffffffffffffffffffffffffffffff1681565b600160009054906101000a900473ffffffffffffffffffffffffffffffffffffffff1673ffffffffffffffffffffffffffffffffffffffff163373ffffffffffffffffffffffffffffffffffffffff161461244e57600080fd5b5b6000600680549050111561267957600060066001600680549050612473919061479e565b815481106124845761248361428e565b5b9060005260206000200160009054906101000a900473ffffffffffffffffffffffffffffffffffffffff16905060068054806124c3576124c26147d2565b5b6001900381819060005260206000200160006101000a81549073ffffffffffffffffffffffffffffffffffffffff021916905590556000600260008373ffffffffffffffffffffffffffffffffffffffff1673ffffffffffffffffffffffffffffffffffffffff16815260200190815260200160002090505b6000816002018054905011156126725760008160020160018360020180549050612566919061479e565b815481106125775761257661428e565b5b90600052602060002001905081600201805480612597576125966147d2565b5b6001900381819060005260206000200160006125b39190613561565b905561266c8180546125c49061425d565b80601f01602080910402602001604051908101604052809291908181526020018280546125f09061425d565b801561263d5780601f106126125761010080835404028352916020019161263d565b820191906000526020600020905b81548152906001019060200180831161262057829003601f168201915b50505050508360010160009054906101000a900473ffffffffffffffffffffffffffffffffffffffff16613130565b5061253c565b505061244f565b565b600060038260405161268d9190614832565b908152602001604051809103902060009054906101000a900473ffffffffffffffffffffffffffffffffffffffff169050919050565b60606005805480602002602001604051908101604052809291908181526020016000905b828210156128d357838290600052602060002090600602016040518060c00160405290816000820160009054906101000a900473ffffffffffffffffffffffffffffffffffffffff1673ffffffffffffffffffffffffffffffffffffffff1673ffffffffffffffffffffffffffffffffffffffff1681526020016001820180546127709061425d565b80601f016020809104026020016040519081016040528092919081815260200182805461279c9061425d565b80156127e95780601f106127be576101008083540402835291602001916127e9565b820191906000526020600020905b8154815290600101906020018083116127cc57829003601f168201915b505050505081526020016002820160009054906101000a900460ff1615151515815260200160038201805461281d9061425d565b80601f01602080910402602001604051908101604052809291908181526020018280546128499061425d565b80156128965780601f1061286b57610100808354040283529160200191612896565b820191906000526020600020905b81548152906001019060200180831161287957829003601f168201915b50505050508152602001600482015481526020016005820160009054906101000a900460ff161515151581525050815260200190600101906126e7565b50505050905090565b600160009054906101000a900473ffffffffffffffffffffffffffffffffffffffff1673ffffffffffffffffffffffffffffffffffffffff163373ffffffffffffffffffffffffffffffffffffffff161461293657600080fd5b600073ffffffffffffffffffffffffffffffffffffffff1660026000600486815481106129665761296561428e565b5b906000526020600020906007020160000160009054906101000a900473ffffffffffffffffffffffffffffffffffffffff1673ffffffffffffffffffffffffffffffffffffffff1673ffffffffffffffffffffffffffffffffffffffff16815260200190815260200160002060000160009054906101000a900473ffffffffffffffffffffffffffffffffffffffff1673ffffffffffffffffffffffffffffffffffffffff1614612a1657600080fd5b8160048481548110612a2b57612a2a61428e565b5b906000526020600020906007020160030160006101000a81548160ff0219169083151502179055508060048481548110612a6857612a6761428e565b5b90600052602060002090600702016004019081612a859190614469565b50600160048481548110612a9c57612a9b61428e565b5b906000526020600020906007020160050160006101000a81548160ff02191690831515021790555081600260003373ffffffffffffffffffffffffffffffffffffffff1673ffffffffffffffffffffffffffffffffffffffff16815260200190815260200160002060060160048581548110612b1b57612b1a61428e565b5b90600052602060002090600702016006015481548110612b3e57612b3d61428e565b5b906000526020600020906007020160030160006101000a81548160ff02191690831515021790555080600260003373ffffffffffffffffffffffffffffffffffffffff1673ffffffffffffffffffffffffffffffffffffffff16815260200190815260200160002060060160048581548110612bbd57612bbc61428e565b5b90600052602060002090600702016006015481548110612be057612bdf61428e565b5b90600052602060002090600702016004019081612bfd9190614469565b506001600260003373ffffffffffffffffffffffffffffffffffffffff1673ffffffffffffffffffffffffffffffffffffffff16815260200190815260200160002060060160048581548110612c5657612c5561428e565b5b90600052602060002090600702016006015481548110612c7957612c7861428e565b5b906000526020600020906007020160050160006101000a81548160ff02191690831515021790555081612cab57600080fd5b60006002600060048681548110612cc557612cc461428e565b5b906000526020600020906007020160000160009054906101000a900473ffffffffffffffffffffffffffffffffffffffff1673ffffffffffffffffffffffffffffffffffffffff1673ffffffffffffffffffffffffffffffffffffffff168152602001908152602001600020905060048481548110612d4757612d4661428e565b5b9060005260206000209060070201600201816003019081612d689190614566565b5060048481548110612d7d57612d7c61428e565b5b906000526020600020906007020160000160009054906101000a900473ffffffffffffffffffffffffffffffffffffffff168160000160006101000a81548173ffffffffffffffffffffffffffffffffffffffff021916908373ffffffffffffffffffffffffffffffffffffffff16021790555060048481548110612e0557612e0461428e565b5b906000526020600020906007020160010160009054906101000a900473ffffffffffffffffffffffffffffffffffffffff168160010160006101000a81548173ffffffffffffffffffffffffffffffffffffffff021916908373ffffffffffffffffffffffffffffffffffffffff16021790555050505050565b6060600260008373ffffffffffffffffffffffffffffffffffffffff1673ffffffffffffffffffffffffffffffffffffffff168152602001908152602001600020600601805480602002602001604051908101604052809291908181526020016000905b8282101561312557838290600052602060002090600702016040518060e00160405290816000820160009054906101000a900473ffffffffffffffffffffffffffffffffffffffff1673ffffffffffffffffffffffffffffffffffffffff1673ffffffffffffffffffffffffffffffffffffffff1681526020016001820160009054906101000a900473ffffffffffffffffffffffffffffffffffffffff1673ffffffffffffffffffffffffffffffffffffffff1673ffffffffffffffffffffffffffffffffffffffff168152602001600282018054612fc29061425d565b80601f0160208091040260200160405190810160405280929190818152602001828054612fee9061425d565b801561303b5780601f106130105761010080835404028352916020019161303b565b820191906000526020600020905b81548152906001019060200180831161301e57829003601f168201915b505050505081526020016003820160009054906101000a900460ff1615151515815260200160048201805461306f9061425d565b80601f016020809104026020016040519081016040528092919081815260200182805461309b9061425d565b80156130e85780601f106130bd576101008083540402835291602001916130e8565b820191906000526020600020905b8154815290600101906020018083116130cb57829003601f168201915b505050505081526020016005820160009054906101000a900460ff1615151515815260200160068201548152505081526020019060010190612ee3565b505050509050919050565b60006003836040516131429190614832565b908152602001604051809103902060009054906101000a900473ffffffffffffffffffffffffffffffffffffffff169050600260008373ffffffffffffffffffffffffffffffffffffffff1673ffffffffffffffffffffffffffffffffffffffff168152602001908152602001600020600201839080600181540180825580915050600190039060005260206000200160009091909190915090816131e79190614469565b506000805b600260008473ffffffffffffffffffffffffffffffffffffffff1673ffffffffffffffffffffffffffffffffffffffff168152602001908152602001600020600201805490508110156132d4578480519060200120600260008573ffffffffffffffffffffffffffffffffffffffff1673ffffffffffffffffffffffffffffffffffffffff16815260200190815260200160002060020182815481106132955761329461428e565b5b906000526020600020016040516132ac91906148ec565b6040518091039020036132c1578091506132d4565b80806132cc90614756565b9150506131ec565b5060008190505b6001600260008573ffffffffffffffffffffffffffffffffffffffff1673ffffffffffffffffffffffffffffffffffffffff1681526020019081526020016000206002018054905061332d919061479e565b81101561341c57600260008473ffffffffffffffffffffffffffffffffffffffff1673ffffffffffffffffffffffffffffffffffffffff1681526020019081526020016000206002016001826133839190614722565b815481106133945761339361428e565b5b90600052602060002001600260008573ffffffffffffffffffffffffffffffffffffffff1673ffffffffffffffffffffffffffffffffffffffff16815260200190815260200160002060020182815481106133f2576133f161428e565b5b9060005260206000200190816134089190614566565b50808061341490614756565b9150506132db565b50600260008373ffffffffffffffffffffffffffffffffffffffff1673ffffffffffffffffffffffffffffffffffffffff16815260200190815260200160002060020180548061346f5761346e6147d2565b5b60019003818190600052602060002001600061348b9190613561565b90558260038560405161349e9190614832565b908152602001604051809103902060006101000a81548173ffffffffffffffffffffffffffffffffffffffff021916908373ffffffffffffffffffffffffffffffffffffffff16021790555050505050565b604051806101000160405280600073ffffffffffffffffffffffffffffffffffffffff168152602001600073ffffffffffffffffffffffffffffffffffffffff1681526020016060815260200160608152602001606081526020016000815260200160608152602001600081525090565b50805461356d9061425d565b6000825580601f1061357f575061359e565b601f01602090049060005260206000209081019061359d91906135a1565b5b50565b5b808211156135ba5760008160009055506001016135a2565b5090565b6000604051905090565b600080fd5b600080fd5b600073ffffffffffffffffffffffffffffffffffffffff82169050919050565b60006135fd826135d2565b9050919050565b61360d816135f2565b811461361857600080fd5b50565b60008135905061362a81613604565b92915050565b600060208284031215613646576136456135c8565b5b60006136548482850161361b565b91505092915050565b613666816135f2565b82525050565b600081519050919050565b600082825260208201905092915050565b60005b838110156136a657808201518184015260208101905061368b565b60008484015250505050565b6000601f19601f8301169050919050565b60006136ce8261366c565b6136d88185613677565b93506136e8818560208601613688565b6136f1816136b2565b840191505092915050565b6000819050919050565b61370f816136fc565b82525050565b600060a08201905061372a600083018861365d565b613737602083018761365d565b818103604083015261374981866136c3565b90506137586060830185613706565b6137656080830184613706565b9695505050505050565b600081519050919050565b600082825260208201905092915050565b6000819050602082019050919050565b6137a4816135f2565b82525050565b600082825260208201905092915050565b60006137c68261366c565b6137d081856137aa565b93506137e0818560208601613688565b6137e9816136b2565b840191505092915050565b60008115159050919050565b613809816137f4565b82525050565b613818816136fc565b82525050565b600060e083016000830151613836600086018261379b565b506020830151613849602086018261379b565b506040830151848203604086015261386182826137bb565b91505060608301516138766060860182613800565b506080830151848203608086015261388e82826137bb565b91505060a08301516138a360a0860182613800565b5060c08301516138b660c086018261380f565b508091505092915050565b60006138cd838361381e565b905092915050565b6000602082019050919050565b60006138ed8261376f565b6138f7818561377a565b9350836020820285016139098561378b565b8060005b85811015613945578484038952815161392685826138c1565b9450613931836138d5565b925060208a0199505060018101905061390d565b50829750879550505050505092915050565b6000602082019050818103600083015261397181846138e2565b905092915050565b600081519050919050565b600082825260208201905092915050565b6000819050602082019050919050565b60006139b183836137bb565b905092915050565b6000602082019050919050565b60006139d182613979565b6139db8185613984565b9350836020820285016139ed85613995565b8060005b85811015613a295784840389528151613a0a85826139a5565b9450613a15836139b9565b925060208a019950506001810190506139f1565b50829750879550505050505092915050565b60006020820190508181036000830152613a5581846139c6565b905092915050565b613a66816136fc565b8114613a7157600080fd5b50565b600081359050613a8381613a5d565b92915050565b613a92816137f4565b8114613a9d57600080fd5b50565b600081359050613aaf81613a89565b92915050565b600080fd5b600080fd5b7f4e487b7100000000000000000000000000000000000000000000000000000000600052604160045260246000fd5b613af7826136b2565b810181811067ffffffffffffffff82111715613b1657613b15613abf565b5b80604052505050565b6000613b296135be565b9050613b358282613aee565b919050565b600067ffffffffffffffff821115613b5557613b54613abf565b5b613b5e826136b2565b9050602081019050919050565b82818337600083830152505050565b6000613b8d613b8884613b3a565b613b1f565b905082815260208101848484011115613ba957613ba8613aba565b5b613bb4848285613b6b565b509392505050565b600082601f830112613bd157613bd0613ab5565b5b8135613be1848260208601613b7a565b91505092915050565b600080600060608486031215613c0357613c026135c8565b5b6000613c1186828701613a74565b9350506020613c2286828701613aa0565b925050604084013567ffffffffffffffff811115613c4357613c426135cd565b5b613c4f86828701613bbc565b9150509250925092565b600060208284031215613c6f57613c6e6135c8565b5b600082013567ffffffffffffffff811115613c8d57613c8c6135cd565b5b613c9984828501613bbc565b91505092915050565b60008060408385031215613cb957613cb86135c8565b5b600083013567ffffffffffffffff811115613cd757613cd66135cd565b5b613ce385828601613bbc565b9250506020613cf48582860161361b565b9150509250929050565b600081519050919050565b600082825260208201905092915050565b6000819050602082019050919050565b600060c083016000830151613d42600086018261379b565b5060208301518482036020860152613d5a82826137bb565b9150506040830151613d6f6040860182613800565b5060608301518482036060860152613d8782826137bb565b9150506080830151613d9c608086018261380f565b5060a0830151613daf60a0860182613800565b508091505092915050565b6000613dc68383613d2a565b905092915050565b6000602082019050919050565b6000613de682613cfe565b613df08185613d09565b935083602082028501613e0285613d1a565b8060005b85811015613e3e5784840389528151613e1f8582613dba565b9450613e2a83613dce565b925060208a01995050600181019050613e06565b50829750879550505050505092915050565b60006020820190508181036000830152613e6a8184613ddb565b905092915050565b6000602082019050613e87600083018461365d565b92915050565b600082825260208201905092915050565b6000613ea982613979565b613eb38185613e8d565b935083602082028501613ec585613995565b8060005b85811015613f015784840389528151613ee285826139a5565b9450613eed836139b9565b925060208a01995050600181019050613ec9565b50829750879550505050505092915050565b600082825260208201905092915050565b6000613f2f82613cfe565b613f398185613f13565b935083602082028501613f4b85613d1a565b8060005b85811015613f875784840389528151613f688582613dba565b9450613f7383613dce565b925060208a01995050600181019050613f4f565b50829750879550505050505092915050565b600082825260208201905092915050565b6000613fb58261376f565b613fbf8185613f99565b935083602082028501613fd18561378b565b8060005b8581101561400d5784840389528151613fee85826138c1565b9450613ff9836138d5565b925060208a01995050600181019050613fd5565b50829750879550505050505092915050565b600061010083016000830151614038600086018261379b565b50602083015161404b602086018261379b565b50604083015184820360408601526140638282613e9e565b9150506060830151848203606086015261407d82826137bb565b915050608083015184820360808601526140978282613f24565b91505060a08301516140ac60a086018261380f565b5060c083015184820360c08601526140c48282613faa565b91505060e08301516140d960e086018261380f565b508091505092915050565b600060208201905081810360008301526140fe818461401f565b905092915050565b60006020828403121561411c5761411b6135c8565b5b600061412a84828501613a74565b91505092915050565b61413c816137f4565b82525050565b600060c082019050614157600083018961365d565b818103602083015261416981886136c3565b90506141786040830187614133565b818103606083015261418a81866136c3565b90506141996080830185613706565b6141a660a0830184614133565b979650505050505050565b600060e0820190506141c6600083018a61365d565b6141d3602083018961365d565b81810360408301526141e581886136c3565b90506141f46060830187614133565b818103608083015261420681866136c3565b905061421560a0830185614133565b61422260c0830184613706565b98975050505050505050565b7f4e487b7100000000000000000000000000000000000000000000000000000000600052602260045260246000fd5b6000600282049050600182168061427557607f821691505b6020821081036142885761428761422e565b5b50919050565b7f4e487b7100000000000000000000000000000000000000000000000000000000600052603260045260246000fd5b60008190508160005260206000209050919050565b60006020601f8301049050919050565b600082821b905092915050565b60006008830261431f7fffffffffffffffffffffffffffffffffffffffffffffffffffffffffffffffff826142e2565b61432986836142e2565b95508019841693508086168417925050509392505050565b6000819050919050565b600061436661436161435c846136fc565b614341565b6136fc565b9050919050565b6000819050919050565b6143808361434b565b61439461438c8261436d565b8484546142ef565b825550505050565b600090565b6143a961439c565b6143b4818484614377565b505050565b5b818110156143d8576143cd6000826143a1565b6001810190506143ba565b5050565b601f82111561441d576143ee816142bd565b6143f7846142d2565b81016020851015614406578190505b61441a614412856142d2565b8301826143b9565b50505b505050565b600082821c905092915050565b600061444060001984600802614422565b1980831691505092915050565b6000614459838361442f565b9150826002028217905092915050565b6144728261366c565b67ffffffffffffffff81111561448b5761448a613abf565b5b614495825461425d565b6144a08282856143dc565b600060209050601f8311600181146144d357600084156144c1578287015190505b6144cb858261444d565b865550614533565b601f1984166144e1866142bd565b60005b82811015614509578489015182556001820191506020850194506020810190506144e4565b868310156145265784890151614522601f89168261442f565b8355505b6001600288020188555050505b505050505050565b60008154905061454a8161425d565b9050919050565b60008190508160005260206000209050919050565b81810361457457505061464c565b61457d8261453b565b67ffffffffffffffff81111561459657614595613abf565b5b6145a0825461425d565b6145ab8282856143dc565b6000601f8311600181146145da57600084156145c8578287015490505b6145d2858261444d565b865550614645565b601f1984166145e887614551565b96506145f3866142bd565b60005b8281101561461b578489015482556001820191506001850194506020810190506145f6565b868310156146385784890154614634601f89168261442f565b8355505b6001600288020188555050505b5050505050505b565b600081905092915050565b600081546146668161425d565b614670818661464e565b9450600182166000811461468b57600181146146a0576146d3565b60ff19831686528115158202860193506146d3565b6146a9856142bd565b60005b838110156146cb578154818901526001820191506020810190506146ac565b838801955050505b50505092915050565b60006146e88284614659565b915081905092915050565b7f4e487b7100000000000000000000000000000000000000000000000000000000600052601160045260246000fd5b600061472d826136fc565b9150614738836136fc565b92508282019050808211156147505761474f6146f3565b5b92915050565b6000614761826136fc565b91507fffffffffffffffffffffffffffffffffffffffffffffffffffffffffffffffff8203614793576147926146f3565b5b600182019050919050565b60006147a9826136fc565b91506147b4836136fc565b92508282039050818111156147cc576147cb6146f3565b5b92915050565b7f4e487b7100000000000000000000000000000000000000000000000000000000600052603160045260246000fd5b600061480c8261366c565b614816818561464e565b9350614826818560208601613688565b80840191505092915050565b600061483e8284614801565b915081905092915050565b600081905092915050565b60008190508160005260206000209050919050565b600081546148768161425d565b6148808186614849565b9450600182166000811461489b57600181146148b0576148e3565b60ff19831686528115158202860193506148e3565b6148b985614854565b60005b838110156148db578154818901526001820191506020810190506148bc565b838801955050505b50505092915050565b60006148f88284614869565b91508190509291505056fea26469706673582212207c95921de924b225cfd7b730eb12d5c648003c637be9fc9ffa954162496d719c64736f6c63430008110033",
  "linkReferences": {},
  "deployedLinkReferences": {}
}