{
  "_format": "hh-sol-artifact-1",
  "contractName": "LandContract",
  "sourceName": "contracts/LandContract.sol",
  "abi": [
    {
      "inputs": [
        {
          "internalType": "address",
          "name": "Officer",
          "type": "address"
        }
      ],
      "stateMutability": "nonpayable",
      "type": "constructor"
    },
    {
      "anonymous": false,
      "inputs": [
        {
          "indexed": false,
          "internalType": "address",
          "name": "user",
          "type": "address"
        }
      ],
      "name": "UserAlreadyPresent",
      "type": "event"
    },
    {
      "anonymous": false,
      "inputs": [
        {
          "indexed": false,
          "internalType": "address",
          "name": "user",
          "type": "address"
        }
      ],
      "name": "UserNotRegistered",
      "type": "event"
    },
    {
      "inputs": [
        {
          "internalType": "uint256",
          "name": "",
          "type": "uint256"
        }
      ],
      "name": "addLandRequests",
      "outputs": [
        {
          "internalType": "address",
          "name": "owner",
          "type": "address"
        },
        {
          "internalType": "string",
          "name": "land",
          "type": "string"
        },
        {
          "internalType": "bool",
          "name": "approved",
          "type": "bool"
        },
        {
          "internalType": "string",
          "name": "note",
          "type": "string"
        },
        {
          "internalType": "uint256",
          "name": "userIndex",
          "type": "uint256"
        },
        {
          "internalType": "bool",
          "name": "processed",
          "type": "bool"
        }
      ],
      "stateMutability": "view",
      "type": "function"
    },
    {
      "inputs": [
        {
          "internalType": "address",
          "name": "executorAddress",
          "type": "address"
        }
      ],
      "name": "addWillExecutionRequest",
      "outputs": [],
      "stateMutability": "nonpayable",
      "type": "function"
    },
    {
      "inputs": [
        {
          "internalType": "address",
          "name": "officer",
          "type": "address"
        }
      ],
      "name": "changeLandOfficer",
      "outputs": [],
      "stateMutability": "nonpayable",
      "type": "function"
    },
    {
      "inputs": [],
      "name": "executeWill",
      "outputs": [],
      "stateMutability": "nonpayable",
      "type": "function"
    },
    {
      "inputs": [],
      "name": "getAddLandRequests",
      "outputs": [
        {
          "components": [
            {
              "internalType": "address",
              "name": "owner",
              "type": "address"
            },
            {
              "internalType": "string",
              "name": "land",
              "type": "string"
            },
            {
              "internalType": "bool",
              "name": "approved",
              "type": "bool"
            },
            {
              "internalType": "string",
              "name": "note",
              "type": "string"
            },
            {
              "internalType": "uint256",
              "name": "userIndex",
              "type": "uint256"
            },
            {
              "internalType": "bool",
              "name": "processed",
              "type": "bool"
            }
          ],
          "internalType": "struct LandContract.AddLandRequest[]",
          "name": "",
          "type": "tuple[]"
        }
      ],
      "stateMutability": "view",
      "type": "function"
    },
    {
      "inputs": [],
      "name": "getNewUserRequests",
      "outputs": [
        {
          "components": [
            {
              "internalType": "address",
              "name": "userAddress",
              "type": "address"
            },
            {
              "internalType": "address",
              "name": "nominee",
              "type": "address"
            },
            {
              "internalType": "string",
              "name": "aadhar",
              "type": "string"
            },
            {
              "internalType": "bool",
              "name": "approved",
              "type": "bool"
            },
            {
              "internalType": "string",
              "name": "note",
              "type": "string"
            },
            {
              "internalType": "bool",
              "name": "processed",
              "type": "bool"
            },
            {
              "internalType": "uint256",
              "name": "userIndex",
              "type": "uint256"
            }
          ],
          "internalType": "struct LandContract.NewUserRequest[]",
          "name": "",
          "type": "tuple[]"
        }
      ],
      "stateMutability": "view",
      "type": "function"
    },
    {
      "inputs": [
        {
          "internalType": "address",
          "name": "user",
          "type": "address"
        }
      ],
      "name": "getOpenAddLandRequest",
      "outputs": [
        {
          "components": [
            {
              "internalType": "address",
              "name": "owner",
              "type": "address"
            },
            {
              "internalType": "string",
              "name": "land",
              "type": "string"
            },
            {
              "internalType": "bool",
              "name": "approved",
              "type": "bool"
            },
            {
              "internalType": "string",
              "name": "note",
              "type": "string"
            },
            {
              "internalType": "uint256",
              "name": "userIndex",
              "type": "uint256"
            },
            {
              "internalType": "bool",
              "name": "processed",
              "type": "bool"
            }
          ],
          "internalType": "struct LandContract.AddLandRequest[]",
          "name": "",
          "type": "tuple[]"
        }
      ],
      "stateMutability": "view",
      "type": "function"
    },
    {
      "inputs": [
        {
          "internalType": "address",
          "name": "user",
          "type": "address"
        }
      ],
      "name": "getOpenNewUserRequests",
      "outputs": [
        {
          "components": [
            {
              "internalType": "address",
              "name": "userAddress",
              "type": "address"
            },
            {
              "internalType": "address",
              "name": "nominee",
              "type": "address"
            },
            {
              "internalType": "string",
              "name": "aadhar",
              "type": "string"
            },
            {
              "internalType": "bool",
              "name": "approved",
              "type": "bool"
            },
            {
              "internalType": "string",
              "name": "note",
              "type": "string"
            },
            {
              "internalType": "bool",
              "name": "processed",
              "type": "bool"
            },
            {
              "internalType": "uint256",
              "name": "userIndex",
              "type": "uint256"
            }
          ],
          "internalType": "struct LandContract.NewUserRequest[]",
          "name": "",
          "type": "tuple[]"
        }
      ],
      "stateMutability": "view",
      "type": "function"
    },
    {
      "inputs": [
        {
          "internalType": "address",
          "name": "user",
          "type": "address"
        }
      ],
      "name": "getUserLands",
      "outputs": [
        {
          "internalType": "string[]",
          "name": "",
          "type": "string[]"
        }
      ],
      "stateMutability": "view",
      "type": "function"
    },
    {
      "inputs": [
        {
          "internalType": "address",
          "name": "",
          "type": "address"
        }
      ],
      "name": "isUserPresent",
      "outputs": [
        {
          "internalType": "bool",
          "name": "",
          "type": "bool"
        }
      ],
      "stateMutability": "view",
      "type": "function"
    },
    {
      "inputs": [],
      "name": "landOfficer",
      "outputs": [
        {
          "internalType": "address",
          "name": "",
          "type": "address"
        }
      ],
      "stateMutability": "view",
      "type": "function"
    },
    {
      "inputs": [
        {
          "internalType": "string",
          "name": "",
          "type": "string"
        }
      ],
      "name": "landOwner",
      "outputs": [
        {
          "internalType": "address",
          "name": "",
          "type": "address"
        }
      ],
      "stateMutability": "view",
      "type": "function"
    },
    {
      "inputs": [],
      "name": "manager",
      "outputs": [
        {
          "internalType": "address",
          "name": "",
          "type": "address"
        }
      ],
      "stateMutability": "view",
      "type": "function"
    },
    {
      "inputs": [
        {
          "internalType": "uint256",
          "name": "",
          "type": "uint256"
        }
      ],
      "name": "newUserRequests",
      "outputs": [
        {
          "internalType": "address",
          "name": "userAddress",
          "type": "address"
        },
        {
          "internalType": "address",
          "name": "nominee",
          "type": "address"
        },
        {
          "internalType": "string",
          "name": "aadhar",
          "type": "string"
        },
        {
          "internalType": "bool",
          "name": "approved",
          "type": "bool"
        },
        {
          "internalType": "string",
          "name": "note",
          "type": "string"
        },
        {
          "internalType": "bool",
          "name": "processed",
          "type": "bool"
        },
        {
          "internalType": "uint256",
          "name": "userIndex",
          "type": "uint256"
        }
      ],
      "stateMutability": "view",
      "type": "function"
    },
    {
      "inputs": [
        {
          "internalType": "string",
          "name": "land",
          "type": "string"
        }
      ],
      "name": "requestNewLand",
      "outputs": [],
      "stateMutability": "nonpayable",
      "type": "function"
    },
    {
      "inputs": [
        {
          "internalType": "string",
          "name": "aadhar",
          "type": "string"
        },
        {
          "internalType": "address",
          "name": "nominee",
          "type": "address"
        }
      ],
      "name": "requestNewUser",
      "outputs": [],
      "stateMutability": "nonpayable",
      "type": "function"
    },
    {
      "inputs": [
        {
          "internalType": "address",
          "name": "",
          "type": "address"
        }
      ],
      "name": "userInfo",
      "outputs": [
        {
          "internalType": "address",
          "name": "userAddress",
          "type": "address"
        },
        {
          "internalType": "address",
          "name": "nominee",
          "type": "address"
        },
        {
          "internalType": "string",
          "name": "aadhar",
          "type": "string"
        },
        {
          "internalType": "uint256",
          "name": "totalOpenAddLandRequests",
          "type": "uint256"
        },
        {
          "internalType": "uint256",
          "name": "totalNewUserRequests",
          "type": "uint256"
        }
      ],
      "stateMutability": "view",
      "type": "function"
    },
    {
      "inputs": [
        {
          "internalType": "uint256",
          "name": "reqInd",
          "type": "uint256"
        },
        {
          "internalType": "bool",
          "name": "approved",
          "type": "bool"
        },
        {
          "internalType": "string",
          "name": "note",
          "type": "string"
        }
      ],
      "name": "verifyAddLandRequest",
      "outputs": [],
      "stateMutability": "nonpayable",
      "type": "function"
    },
    {
      "inputs": [
        {
          "internalType": "uint256",
          "name": "reqInd",
          "type": "uint256"
        },
        {
          "internalType": "bool",
          "name": "approved",
          "type": "bool"
        },
        {
          "internalType": "string",
          "name": "note",
          "type": "string"
        }
      ],
      "name": "verifyNewUser",
      "outputs": [],
      "stateMutability": "nonpayable",
      "type": "function"
    },
    {
      "inputs": [
        {
          "internalType": "uint256",
          "name": "",
          "type": "uint256"
        }
      ],
      "name": "willExecutionRequests",
      "outputs": [
        {
          "internalType": "address",
          "name": "",
          "type": "address"
        }
      ],
      "stateMutability": "view",
      "type": "function"
    }
  ],
  "bytecode": "0x60806040523480156200001157600080fd5b50604051620043f9380380620043f9833981810160405281019062000037919062000129565b336000806101000a81548173ffffffffffffffffffffffffffffffffffffffff021916908373ffffffffffffffffffffffffffffffffffffffff16021790555080600160006101000a81548173ffffffffffffffffffffffffffffffffffffffff021916908373ffffffffffffffffffffffffffffffffffffffff160217905550506200015b565b600080fd5b600073ffffffffffffffffffffffffffffffffffffffff82169050919050565b6000620000f182620000c4565b9050919050565b6200010381620000e4565b81146200010f57600080fd5b50565b6000815190506200012381620000f8565b92915050565b600060208284031215620001425762000141620000bf565b5b6000620001528482850162000112565b91505092915050565b61428e806200016b6000396000f3fe608060405234801561001057600080fd5b506004361061012c5760003560e01c806383a99014116100ad578063a5b8363511610071578063a5b8363514610376578063ca207df114610380578063f0016dfb1461039e578063fad63e5c146103ba578063fffb9366146103ea5761012c565b806383a990141461028d57806389301e1b146102c257806394e5164c146102f85780639be6369114610316578063a5578807146103465761012c565b80633a8c2d10116100f45780633a8c2d10146101eb57806344cefff814610207578063481c6a751461022357806348c24e111461024157806365860195146102715761012c565b80631959a002146101315780631af6d2971461016557806326cc9bec1461018157806328bf5ef51461019f5780632d0bc5c4146101cf575b600080fd5b61014b600480360381019061014691906131e3565b61041a565b60405161015c9594939291906132c8565b60405180910390f35b61017f600480360381019061017a91906131e3565b610518565b005b610189610664565b604051610196919061350a565b60405180910390f35b6101b960048036038101906101b491906131e3565b61092d565b6040516101c691906135ee565b60405180910390f35b6101e960048036038101906101e4919061379d565b610a48565b005b6102056004803603810190610200919061380c565b611047565b005b610221600480360381019061021c9190613855565b6113f2565b005b61022b611842565b60405161023891906138b1565b60405180910390f35b61025b6004803603810190610256919061380c565b611866565b60405161026891906138b1565b60405180910390f35b61028b600480360381019061028691906131e3565b6118af565b005b6102a760048036038101906102a291906138cc565b61194b565b6040516102b996959493929190613908565b60405180910390f35b6102dc60048036038101906102d791906138cc565b611ae1565b6040516102ef9796959493929190613977565b60405180910390f35b610300611c9d565b60405161030d91906138b1565b60405180910390f35b610330600480360381019061032b91906138cc565b611cc3565b60405161033d91906138b1565b60405180910390f35b610360600480360381019061035b91906131e3565b611d02565b60405161036d91906139f4565b60405180910390f35b61037e611d22565b005b610388611fa9565b6040516103959190613b61565b60405180910390f35b6103b860048036038101906103b3919061379d565b61221c565b005b6103d460048036038101906103cf91906131e3565b612848565b6040516103e1919061350a565b60405180910390f35b61040460048036038101906103ff91906131e3565b612af9565b6040516104119190613b61565b60405180910390f35b60026020528060005260406000206000915090508060000160009054906101000a900473ffffffffffffffffffffffffffffffffffffffff16908060010160009054906101000a900473ffffffffffffffffffffffffffffffffffffffff169080600301805461048990613bb2565b80601f01602080910402602001604051908101604052809291908181526020018280546104b590613bb2565b80156105025780601f106104d757610100808354040283529160200191610502565b820191906000526020600020905b8154815290600101906020018083116104e557829003601f168201915b5050505050908060050154908060070154905085565b60008054906101000a900473ffffffffffffffffffffffffffffffffffffffff1673ffffffffffffffffffffffffffffffffffffffff163373ffffffffffffffffffffffffffffffffffffffff161461057057600080fd5b600460008273ffffffffffffffffffffffffffffffffffffffff1673ffffffffffffffffffffffffffffffffffffffff16815260200190815260200160002060009054906101000a900460ff166105fd577fae2730ca58fd7a6924c6528ced555eba449bd12e5d3a5226781fb2d51a390bfd816040516105f091906138b1565b60405180910390a1610661565b6007819080600181540180825580915050600190039060005260206000200160009091909190916101000a81548173ffffffffffffffffffffffffffffffffffffffff021916908373ffffffffffffffffffffffffffffffffffffffff1602179055505b50565b6060600160009054906101000a900473ffffffffffffffffffffffffffffffffffffffff1673ffffffffffffffffffffffffffffffffffffffff163373ffffffffffffffffffffffffffffffffffffffff16146106c057600080fd5b6005805480602002602001604051908101604052809291908181526020016000905b8282101561092457838290600052602060002090600702016040518060e00160405290816000820160009054906101000a900473ffffffffffffffffffffffffffffffffffffffff1673ffffffffffffffffffffffffffffffffffffffff1673ffffffffffffffffffffffffffffffffffffffff1681526020016001820160009054906101000a900473ffffffffffffffffffffffffffffffffffffffff1673ffffffffffffffffffffffffffffffffffffffff1673ffffffffffffffffffffffffffffffffffffffff1681526020016002820180546107c190613bb2565b80601f01602080910402602001604051908101604052809291908181526020018280546107ed90613bb2565b801561083a5780601f1061080f5761010080835404028352916020019161083a565b820191906000526020600020905b81548152906001019060200180831161081d57829003601f168201915b505050505081526020016003820160009054906101000a900460ff1615151515815260200160048201805461086e90613bb2565b80601f016020809104026020016040519081016040528092919081815260200182805461089a90613bb2565b80156108e75780601f106108bc576101008083540402835291602001916108e7565b820191906000526020600020905b8154815290600101906020018083116108ca57829003601f168201915b505050505081526020016005820160009054906101000a900460ff16151515158152602001600682015481525050815260200190600101906106e2565b50505050905090565b6060600260008373ffffffffffffffffffffffffffffffffffffffff1673ffffffffffffffffffffffffffffffffffffffff168152602001908152602001600020600201805480602002602001604051908101604052809291908181526020016000905b82821015610a3d5783829060005260206000200180546109b090613bb2565b80601f01602080910402602001604051908101604052809291908181526020018280546109dc90613bb2565b8015610a295780601f106109fe57610100808354040283529160200191610a29565b820191906000526020600020905b815481529060010190602001808311610a0c57829003601f168201915b505050505081526020019060010190610991565b505050509050919050565b600160009054906101000a900473ffffffffffffffffffffffffffffffffffffffff1673ffffffffffffffffffffffffffffffffffffffff163373ffffffffffffffffffffffffffffffffffffffff1614610aa257600080fd5b6004600060068581548110610aba57610ab9613be3565b5b906000526020600020906006020160000160009054906101000a900473ffffffffffffffffffffffffffffffffffffffff1673ffffffffffffffffffffffffffffffffffffffff1673ffffffffffffffffffffffffffffffffffffffff16815260200190815260200160002060009054906101000a900460ff16610b3d57600080fd5b8160068481548110610b5257610b51613be3565b5b906000526020600020906006020160020160006101000a81548160ff0219169083151502179055508060068481548110610b8f57610b8e613be3565b5b90600052602060002090600602016003019081610bac9190613dbe565b50600160068481548110610bc357610bc2613be3565b5b906000526020600020906006020160050160006101000a81548160ff021916908315150217905550816002600060068681548110610c0457610c03613be3565b5b906000526020600020906006020160000160009054906101000a900473ffffffffffffffffffffffffffffffffffffffff1673ffffffffffffffffffffffffffffffffffffffff1673ffffffffffffffffffffffffffffffffffffffff16815260200190815260200160002060040160068581548110610c8757610c86613be3565b5b90600052602060002090600602016004015481548110610caa57610ca9613be3565b5b906000526020600020906006020160020160006101000a81548160ff021916908315150217905550806002600060068681548110610ceb57610cea613be3565b5b906000526020600020906006020160000160009054906101000a900473ffffffffffffffffffffffffffffffffffffffff1673ffffffffffffffffffffffffffffffffffffffff1673ffffffffffffffffffffffffffffffffffffffff16815260200190815260200160002060040160068581548110610d6e57610d6d613be3565b5b90600052602060002090600602016004015481548110610d9157610d90613be3565b5b90600052602060002090600602016003019081610dae9190613dbe565b5060016002600060068681548110610dc957610dc8613be3565b5b906000526020600020906006020160000160009054906101000a900473ffffffffffffffffffffffffffffffffffffffff1673ffffffffffffffffffffffffffffffffffffffff1673ffffffffffffffffffffffffffffffffffffffff16815260200190815260200160002060040160068581548110610e4c57610e4b613be3565b5b90600052602060002090600602016004015481548110610e6f57610e6e613be3565b5b906000526020600020906006020160050160006101000a81548160ff0219169083151502179055508115611042576002600060068581548110610eb557610eb4613be3565b5b906000526020600020906006020160000160009054906101000a900473ffffffffffffffffffffffffffffffffffffffff1673ffffffffffffffffffffffffffffffffffffffff1673ffffffffffffffffffffffffffffffffffffffff16815260200190815260200160002060020160068481548110610f3857610f37613be3565b5b9060005260206000209060060201600101908060018154018082558091505060019003906000526020600020016000909190919091509081610f7a9190613ebb565b5060068381548110610f8f57610f8e613be3565b5b906000526020600020906006020160000160009054906101000a900473ffffffffffffffffffffffffffffffffffffffff16600360068581548110610fd757610fd6613be3565b5b9060005260206000209060060201600101604051610ff59190614031565b908152602001604051809103902060006101000a81548173ffffffffffffffffffffffffffffffffffffffff021916908373ffffffffffffffffffffffffffffffffffffffff1602179055505b505050565b60001515600460003373ffffffffffffffffffffffffffffffffffffffff1673ffffffffffffffffffffffffffffffffffffffff16815260200190815260200160002060009054906101000a900460ff161515036110db577fae2730ca58fd7a6924c6528ced555eba449bd12e5d3a5226781fb2d51a390bfd336040516110ce91906138b1565b60405180910390a16113ef565b6000600260003373ffffffffffffffffffffffffffffffffffffffff1673ffffffffffffffffffffffffffffffffffffffff16815260200190815260200160002060050154905060006040518060c001604052803373ffffffffffffffffffffffffffffffffffffffff168152602001848152602001600015158152602001604051806020016040528060008152508152602001838152602001600015158152509050600681908060018154018082558091505060019003906000526020600020906006020160009091909190915060008201518160000160006101000a81548173ffffffffffffffffffffffffffffffffffffffff021916908373ffffffffffffffffffffffffffffffffffffffff16021790555060208201518160010190816112069190613dbe565b5060408201518160020160006101000a81548160ff021916908315150217905550606082015181600301908161123c9190613dbe565b506080820151816004015560a08201518160050160006101000a81548160ff0219169083151502179055505050600260003373ffffffffffffffffffffffffffffffffffffffff1673ffffffffffffffffffffffffffffffffffffffff16815260200190815260200160002060040181908060018154018082558091505060019003906000526020600020906006020160009091909190915060008201518160000160006101000a81548173ffffffffffffffffffffffffffffffffffffffff021916908373ffffffffffffffffffffffffffffffffffffffff16021790555060208201518160010190816113319190613dbe565b5060408201518160020160006101000a81548160ff02191690831515021790555060608201518160030190816113679190613dbe565b506080820151816004015560a08201518160050160006101000a81548160ff0219169083151502179055505050600260003373ffffffffffffffffffffffffffffffffffffffff1673ffffffffffffffffffffffffffffffffffffffff16815260200190815260200160002060050160008154809291906113e790614077565b919050555050505b50565b600460003373ffffffffffffffffffffffffffffffffffffffff1673ffffffffffffffffffffffffffffffffffffffff16815260200190815260200160002060009054906101000a900460ff1615611480577fc561cf7889c2c6e7a334b6ddd4fa029e8179a68abcf1f14fe90a87b6319661823360405161147391906138b1565b60405180910390a161183e565b6000600260003373ffffffffffffffffffffffffffffffffffffffff1673ffffffffffffffffffffffffffffffffffffffff16815260200190815260200160002060070154905060006040518060e001604052803373ffffffffffffffffffffffffffffffffffffffff1681526020018473ffffffffffffffffffffffffffffffffffffffff168152602001858152602001600015158152602001604051806020016040528060008152508152602001600015158152602001838152509050600581908060018154018082558091505060019003906000526020600020906007020160009091909190915060008201518160000160006101000a81548173ffffffffffffffffffffffffffffffffffffffff021916908373ffffffffffffffffffffffffffffffffffffffff16021790555060208201518160010160006101000a81548173ffffffffffffffffffffffffffffffffffffffff021916908373ffffffffffffffffffffffffffffffffffffffff160217905550604082015181600201908161160e9190613dbe565b5060608201518160030160006101000a81548160ff02191690831515021790555060808201518160040190816116449190613dbe565b5060a08201518160050160006101000a81548160ff02191690831515021790555060c082015181600601555050600260003373ffffffffffffffffffffffffffffffffffffffff1673ffffffffffffffffffffffffffffffffffffffff16815260200190815260200160002060060181908060018154018082558091505060019003906000526020600020906007020160009091909190915060008201518160000160006101000a81548173ffffffffffffffffffffffffffffffffffffffff021916908373ffffffffffffffffffffffffffffffffffffffff16021790555060208201518160010160006101000a81548173ffffffffffffffffffffffffffffffffffffffff021916908373ffffffffffffffffffffffffffffffffffffffff16021790555060408201518160020190816117809190613dbe565b5060608201518160030160006101000a81548160ff02191690831515021790555060808201518160040190816117b69190613dbe565b5060a08201518160050160006101000a81548160ff02191690831515021790555060c082015181600601555050600260003373ffffffffffffffffffffffffffffffffffffffff1673ffffffffffffffffffffffffffffffffffffffff168152602001908152602001600020600701600081548092919061183690614077565b919050555050505b5050565b60008054906101000a900473ffffffffffffffffffffffffffffffffffffffff1681565b6003818051602081018201805184825260208301602085012081835280955050505050506000915054906101000a900473ffffffffffffffffffffffffffffffffffffffff1681565b60008054906101000a900473ffffffffffffffffffffffffffffffffffffffff1673ffffffffffffffffffffffffffffffffffffffff163373ffffffffffffffffffffffffffffffffffffffff161461190757600080fd5b80600160006101000a81548173ffffffffffffffffffffffffffffffffffffffff021916908373ffffffffffffffffffffffffffffffffffffffff16021790555050565b6006818154811061195b57600080fd5b90600052602060002090600602016000915090508060000160009054906101000a900473ffffffffffffffffffffffffffffffffffffffff16908060010180546119a490613bb2565b80601f01602080910402602001604051908101604052809291908181526020018280546119d090613bb2565b8015611a1d5780601f106119f257610100808354040283529160200191611a1d565b820191906000526020600020905b815481529060010190602001808311611a0057829003601f168201915b5050505050908060020160009054906101000a900460ff1690806003018054611a4590613bb2565b80601f0160208091040260200160405190810160405280929190818152602001828054611a7190613bb2565b8015611abe5780601f10611a9357610100808354040283529160200191611abe565b820191906000526020600020905b815481529060010190602001808311611aa157829003601f168201915b5050505050908060040154908060050160009054906101000a900460ff16905086565b60058181548110611af157600080fd5b90600052602060002090600702016000915090508060000160009054906101000a900473ffffffffffffffffffffffffffffffffffffffff16908060010160009054906101000a900473ffffffffffffffffffffffffffffffffffffffff1690806002018054611b6090613bb2565b80601f0160208091040260200160405190810160405280929190818152602001828054611b8c90613bb2565b8015611bd95780601f10611bae57610100808354040283529160200191611bd9565b820191906000526020600020905b815481529060010190602001808311611bbc57829003601f168201915b5050505050908060030160009054906101000a900460ff1690806004018054611c0190613bb2565b80601f0160208091040260200160405190810160405280929190818152602001828054611c2d90613bb2565b8015611c7a5780601f10611c4f57610100808354040283529160200191611c7a565b820191906000526020600020905b815481529060010190602001808311611c5d57829003601f168201915b5050505050908060050160009054906101000a900460ff16908060060154905087565b600160009054906101000a900473ffffffffffffffffffffffffffffffffffffffff1681565b60078181548110611cd357600080fd5b906000526020600020016000915054906101000a900473ffffffffffffffffffffffffffffffffffffffff1681565b60046020528060005260406000206000915054906101000a900460ff1681565b600160009054906101000a900473ffffffffffffffffffffffffffffffffffffffff1673ffffffffffffffffffffffffffffffffffffffff163373ffffffffffffffffffffffffffffffffffffffff1614611d7c57600080fd5b5b60006007805490501115611fa757600060076001600780549050611da191906140bf565b81548110611db257611db1613be3565b5b9060005260206000200160009054906101000a900473ffffffffffffffffffffffffffffffffffffffff1690506007805480611df157611df06140f3565b5b6001900381819060005260206000200160006101000a81549073ffffffffffffffffffffffffffffffffffffffff021916905590556000600260008373ffffffffffffffffffffffffffffffffffffffff1673ffffffffffffffffffffffffffffffffffffffff16815260200190815260200160002090505b600081600201805490501115611fa05760008160020160018360020180549050611e9491906140bf565b81548110611ea557611ea4613be3565b5b90600052602060002001905081600201805480611ec557611ec46140f3565b5b600190038181906000526020600020016000611ee19190613114565b9055611f9a818054611ef290613bb2565b80601f0160208091040260200160405190810160405280929190818152602001828054611f1e90613bb2565b8015611f6b5780601f10611f4057610100808354040283529160200191611f6b565b820191906000526020600020905b815481529060010190602001808311611f4e57829003601f168201915b50505050508360010160009054906101000a900473ffffffffffffffffffffffffffffffffffffffff16612d54565b50611e6a565b5050611d7d565b565b6060600160009054906101000a900473ffffffffffffffffffffffffffffffffffffffff1673ffffffffffffffffffffffffffffffffffffffff163373ffffffffffffffffffffffffffffffffffffffff161461200557600080fd5b6006805480602002602001604051908101604052809291908181526020016000905b8282101561221357838290600052602060002090600602016040518060c00160405290816000820160009054906101000a900473ffffffffffffffffffffffffffffffffffffffff1673ffffffffffffffffffffffffffffffffffffffff1673ffffffffffffffffffffffffffffffffffffffff1681526020016001820180546120b090613bb2565b80601f01602080910402602001604051908101604052809291908181526020018280546120dc90613bb2565b80156121295780601f106120fe57610100808354040283529160200191612129565b820191906000526020600020905b81548152906001019060200180831161210c57829003601f168201915b505050505081526020016002820160009054906101000a900460ff1615151515815260200160038201805461215d90613bb2565b80601f016020809104026020016040519081016040528092919081815260200182805461218990613bb2565b80156121d65780601f106121ab576101008083540402835291602001916121d6565b820191906000526020600020905b8154815290600101906020018083116121b957829003601f168201915b50505050508152602001600482015481526020016005820160009054906101000a900460ff16151515158152505081526020019060010190612027565b50505050905090565b600160009054906101000a900473ffffffffffffffffffffffffffffffffffffffff1673ffffffffffffffffffffffffffffffffffffffff163373ffffffffffffffffffffffffffffffffffffffff161461227657600080fd5b816005848154811061228b5761228a613be3565b5b906000526020600020906007020160030160006101000a81548160ff02191690831515021790555080600584815481106122c8576122c7613be3565b5b906000526020600020906007020160040190816122e59190613dbe565b506001600584815481106122fc576122fb613be3565b5b906000526020600020906007020160050160006101000a81548160ff02191690831515021790555081600260006005868154811061233d5761233c613be3565b5b906000526020600020906007020160000160009054906101000a900473ffffffffffffffffffffffffffffffffffffffff1673ffffffffffffffffffffffffffffffffffffffff1673ffffffffffffffffffffffffffffffffffffffff168152602001908152602001600020600601600585815481106123c0576123bf613be3565b5b906000526020600020906007020160060154815481106123e3576123e2613be3565b5b906000526020600020906007020160030160006101000a81548160ff02191690831515021790555080600260006005868154811061242457612423613be3565b5b906000526020600020906007020160000160009054906101000a900473ffffffffffffffffffffffffffffffffffffffff1673ffffffffffffffffffffffffffffffffffffffff1673ffffffffffffffffffffffffffffffffffffffff168152602001908152602001600020600601600585815481106124a7576124a6613be3565b5b906000526020600020906007020160060154815481106124ca576124c9613be3565b5b906000526020600020906007020160040190816124e79190613dbe565b506001600260006005868154811061250257612501613be3565b5b906000526020600020906007020160000160009054906101000a900473ffffffffffffffffffffffffffffffffffffffff1673ffffffffffffffffffffffffffffffffffffffff1673ffffffffffffffffffffffffffffffffffffffff1681526020019081526020016000206006016005858154811061258557612584613be3565b5b906000526020600020906007020160060154815481106125a8576125a7613be3565b5b906000526020600020906007020160050160006101000a81548160ff021916908315150217905550811561284357600060026000600586815481106125f0576125ef613be3565b5b906000526020600020906007020160000160009054906101000a900473ffffffffffffffffffffffffffffffffffffffff1673ffffffffffffffffffffffffffffffffffffffff1673ffffffffffffffffffffffffffffffffffffffff16815260200190815260200160002090506005848154811061267257612671613be3565b5b90600052602060002090600702016002018160030190816126939190613ebb565b50600584815481106126a8576126a7613be3565b5b906000526020600020906007020160000160009054906101000a900473ffffffffffffffffffffffffffffffffffffffff168160000160006101000a81548173ffffffffffffffffffffffffffffffffffffffff021916908373ffffffffffffffffffffffffffffffffffffffff160217905550600584815481106127305761272f613be3565b5b906000526020600020906007020160010160009054906101000a900473ffffffffffffffffffffffffffffffffffffffff168160010160006101000a81548173ffffffffffffffffffffffffffffffffffffffff021916908373ffffffffffffffffffffffffffffffffffffffff160217905550600160046000600587815481106127be576127bd613be3565b5b906000526020600020906007020160000160009054906101000a900473ffffffffffffffffffffffffffffffffffffffff1673ffffffffffffffffffffffffffffffffffffffff1673ffffffffffffffffffffffffffffffffffffffff16815260200190815260200160002060006101000a81548160ff021916908315150217905550505b505050565b6060600260008373ffffffffffffffffffffffffffffffffffffffff1673ffffffffffffffffffffffffffffffffffffffff168152602001908152602001600020600601805480602002602001604051908101604052809291908181526020016000905b82821015612aee57838290600052602060002090600702016040518060e00160405290816000820160009054906101000a900473ffffffffffffffffffffffffffffffffffffffff1673ffffffffffffffffffffffffffffffffffffffff1673ffffffffffffffffffffffffffffffffffffffff1681526020016001820160009054906101000a900473ffffffffffffffffffffffffffffffffffffffff1673ffffffffffffffffffffffffffffffffffffffff1673ffffffffffffffffffffffffffffffffffffffff16815260200160028201805461298b90613bb2565b80601f01602080910402602001604051908101604052809291908181526020018280546129b790613bb2565b8015612a045780601f106129d957610100808354040283529160200191612a04565b820191906000526020600020905b8154815290600101906020018083116129e757829003601f168201915b505050505081526020016003820160009054906101000a900460ff16151515158152602001600482018054612a3890613bb2565b80601f0160208091040260200160405190810160405280929190818152602001828054612a6490613bb2565b8015612ab15780601f10612a8657610100808354040283529160200191612ab1565b820191906000526020600020905b815481529060010190602001808311612a9457829003601f168201915b505050505081526020016005820160009054906101000a900460ff16151515158152602001600682015481525050815260200190600101906128ac565b505050509050919050565b6060600260008373ffffffffffffffffffffffffffffffffffffffff1673ffffffffffffffffffffffffffffffffffffffff168152602001908152602001600020600401805480602002602001604051908101604052809291908181526020016000905b82821015612d4957838290600052602060002090600602016040518060c00160405290816000820160009054906101000a900473ffffffffffffffffffffffffffffffffffffffff1673ffffffffffffffffffffffffffffffffffffffff1673ffffffffffffffffffffffffffffffffffffffff168152602001600182018054612be690613bb2565b80601f0160208091040260200160405190810160405280929190818152602001828054612c1290613bb2565b8015612c5f5780601f10612c3457610100808354040283529160200191612c5f565b820191906000526020600020905b815481529060010190602001808311612c4257829003601f168201915b505050505081526020016002820160009054906101000a900460ff16151515158152602001600382018054612c9390613bb2565b80601f0160208091040260200160405190810160405280929190818152602001828054612cbf90613bb2565b8015612d0c5780601f10612ce157610100808354040283529160200191612d0c565b820191906000526020600020905b815481529060010190602001808311612cef57829003601f168201915b50505050508152602001600482015481526020016005820160009054906101000a900460ff16151515158152505081526020019060010190612b5d565b505050509050919050565b6000600383604051612d669190614153565b908152602001604051809103902060009054906101000a900473ffffffffffffffffffffffffffffffffffffffff169050600260008373ffffffffffffffffffffffffffffffffffffffff1673ffffffffffffffffffffffffffffffffffffffff16815260200190815260200160002060020183908060018154018082558091505060019003906000526020600020016000909190919091509081612e0b9190613dbe565b506000805b600260008473ffffffffffffffffffffffffffffffffffffffff1673ffffffffffffffffffffffffffffffffffffffff16815260200190815260200160002060020180549050811015612ef8578480519060200120600260008573ffffffffffffffffffffffffffffffffffffffff1673ffffffffffffffffffffffffffffffffffffffff1681526020019081526020016000206002018281548110612eb957612eb8613be3565b5b90600052602060002001604051612ed0919061420d565b604051809103902003612ee557809150612ef8565b8080612ef090614077565b915050612e10565b5060008190505b6001600260008573ffffffffffffffffffffffffffffffffffffffff1673ffffffffffffffffffffffffffffffffffffffff16815260200190815260200160002060020180549050612f5191906140bf565b81101561304057600260008473ffffffffffffffffffffffffffffffffffffffff1673ffffffffffffffffffffffffffffffffffffffff168152602001908152602001600020600201600182612fa79190614224565b81548110612fb857612fb7613be3565b5b90600052602060002001600260008573ffffffffffffffffffffffffffffffffffffffff1673ffffffffffffffffffffffffffffffffffffffff168152602001908152602001600020600201828154811061301657613015613be3565b5b90600052602060002001908161302c9190613ebb565b50808061303890614077565b915050612eff565b50600260008373ffffffffffffffffffffffffffffffffffffffff1673ffffffffffffffffffffffffffffffffffffffff168152602001908152602001600020600201805480613093576130926140f3565b5b6001900381819060005260206000200160006130af9190613114565b9055826003856040516130c29190614153565b908152602001604051809103902060006101000a81548173ffffffffffffffffffffffffffffffffffffffff021916908373ffffffffffffffffffffffffffffffffffffffff16021790555050505050565b50805461312090613bb2565b6000825580601f106131325750613151565b601f0160209004906000526020600020908101906131509190613154565b5b50565b5b8082111561316d576000816000905550600101613155565b5090565b6000604051905090565b600080fd5b600080fd5b600073ffffffffffffffffffffffffffffffffffffffff82169050919050565b60006131b082613185565b9050919050565b6131c0816131a5565b81146131cb57600080fd5b50565b6000813590506131dd816131b7565b92915050565b6000602082840312156131f9576131f861317b565b5b6000613207848285016131ce565b91505092915050565b613219816131a5565b82525050565b600081519050919050565b600082825260208201905092915050565b60005b8381101561325957808201518184015260208101905061323e565b60008484015250505050565b6000601f19601f8301169050919050565b60006132818261321f565b61328b818561322a565b935061329b81856020860161323b565b6132a481613265565b840191505092915050565b6000819050919050565b6132c2816132af565b82525050565b600060a0820190506132dd6000830188613210565b6132ea6020830187613210565b81810360408301526132fc8186613276565b905061330b60608301856132b9565b61331860808301846132b9565b9695505050505050565b600081519050919050565b600082825260208201905092915050565b6000819050602082019050919050565b613357816131a5565b82525050565b600082825260208201905092915050565b60006133798261321f565b613383818561335d565b935061339381856020860161323b565b61339c81613265565b840191505092915050565b60008115159050919050565b6133bc816133a7565b82525050565b6133cb816132af565b82525050565b600060e0830160008301516133e9600086018261334e565b5060208301516133fc602086018261334e565b5060408301518482036040860152613414828261336e565b915050606083015161342960608601826133b3565b5060808301518482036080860152613441828261336e565b91505060a083015161345660a08601826133b3565b5060c083015161346960c08601826133c2565b508091505092915050565b600061348083836133d1565b905092915050565b6000602082019050919050565b60006134a082613322565b6134aa818561332d565b9350836020820285016134bc8561333e565b8060005b858110156134f857848403895281516134d98582613474565b94506134e483613488565b925060208a019950506001810190506134c0565b50829750879550505050505092915050565b600060208201905081810360008301526135248184613495565b905092915050565b600081519050919050565b600082825260208201905092915050565b6000819050602082019050919050565b6000613564838361336e565b905092915050565b6000602082019050919050565b60006135848261352c565b61358e8185613537565b9350836020820285016135a085613548565b8060005b858110156135dc57848403895281516135bd8582613558565b94506135c88361356c565b925060208a019950506001810190506135a4565b50829750879550505050505092915050565b600060208201905081810360008301526136088184613579565b905092915050565b613619816132af565b811461362457600080fd5b50565b60008135905061363681613610565b92915050565b613645816133a7565b811461365057600080fd5b50565b6000813590506136628161363c565b92915050565b600080fd5b600080fd5b7f4e487b7100000000000000000000000000000000000000000000000000000000600052604160045260246000fd5b6136aa82613265565b810181811067ffffffffffffffff821117156136c9576136c8613672565b5b80604052505050565b60006136dc613171565b90506136e882826136a1565b919050565b600067ffffffffffffffff82111561370857613707613672565b5b61371182613265565b9050602081019050919050565b82818337600083830152505050565b600061374061373b846136ed565b6136d2565b90508281526020810184848401111561375c5761375b61366d565b5b61376784828561371e565b509392505050565b600082601f83011261378457613783613668565b5b813561379484826020860161372d565b91505092915050565b6000806000606084860312156137b6576137b561317b565b5b60006137c486828701613627565b93505060206137d586828701613653565b925050604084013567ffffffffffffffff8111156137f6576137f5613180565b5b6138028682870161376f565b9150509250925092565b6000602082840312156138225761382161317b565b5b600082013567ffffffffffffffff8111156138405761383f613180565b5b61384c8482850161376f565b91505092915050565b6000806040838503121561386c5761386b61317b565b5b600083013567ffffffffffffffff81111561388a57613889613180565b5b6138968582860161376f565b92505060206138a7858286016131ce565b9150509250929050565b60006020820190506138c66000830184613210565b92915050565b6000602082840312156138e2576138e161317b565b5b60006138f084828501613627565b91505092915050565b613902816133a7565b82525050565b600060c08201905061391d6000830189613210565b818103602083015261392f8188613276565b905061393e60408301876138f9565b81810360608301526139508186613276565b905061395f60808301856132b9565b61396c60a08301846138f9565b979650505050505050565b600060e08201905061398c600083018a613210565b6139996020830189613210565b81810360408301526139ab8188613276565b90506139ba60608301876138f9565b81810360808301526139cc8186613276565b90506139db60a08301856138f9565b6139e860c08301846132b9565b98975050505050505050565b6000602082019050613a0960008301846138f9565b92915050565b600081519050919050565b600082825260208201905092915050565b6000819050602082019050919050565b600060c083016000830151613a53600086018261334e565b5060208301518482036020860152613a6b828261336e565b9150506040830151613a8060408601826133b3565b5060608301518482036060860152613a98828261336e565b9150506080830151613aad60808601826133c2565b5060a0830151613ac060a08601826133b3565b508091505092915050565b6000613ad78383613a3b565b905092915050565b6000602082019050919050565b6000613af782613a0f565b613b018185613a1a565b935083602082028501613b1385613a2b565b8060005b85811015613b4f5784840389528151613b308582613acb565b9450613b3b83613adf565b925060208a01995050600181019050613b17565b50829750879550505050505092915050565b60006020820190508181036000830152613b7b8184613aec565b905092915050565b7f4e487b7100000000000000000000000000000000000000000000000000000000600052602260045260246000fd5b60006002820490506001821680613bca57607f821691505b602082108103613bdd57613bdc613b83565b5b50919050565b7f4e487b7100000000000000000000000000000000000000000000000000000000600052603260045260246000fd5b60008190508160005260206000209050919050565b60006020601f8301049050919050565b600082821b905092915050565b600060088302613c747fffffffffffffffffffffffffffffffffffffffffffffffffffffffffffffffff82613c37565b613c7e8683613c37565b95508019841693508086168417925050509392505050565b6000819050919050565b6000613cbb613cb6613cb1846132af565b613c96565b6132af565b9050919050565b6000819050919050565b613cd583613ca0565b613ce9613ce182613cc2565b848454613c44565b825550505050565b600090565b613cfe613cf1565b613d09818484613ccc565b505050565b5b81811015613d2d57613d22600082613cf6565b600181019050613d0f565b5050565b601f821115613d7257613d4381613c12565b613d4c84613c27565b81016020851015613d5b578190505b613d6f613d6785613c27565b830182613d0e565b50505b505050565b600082821c905092915050565b6000613d9560001984600802613d77565b1980831691505092915050565b6000613dae8383613d84565b9150826002028217905092915050565b613dc78261321f565b67ffffffffffffffff811115613de057613ddf613672565b5b613dea8254613bb2565b613df5828285613d31565b600060209050601f831160018114613e285760008415613e16578287015190505b613e208582613da2565b865550613e88565b601f198416613e3686613c12565b60005b82811015613e5e57848901518255600182019150602085019450602081019050613e39565b86831015613e7b5784890151613e77601f891682613d84565b8355505b6001600288020188555050505b505050505050565b600081549050613e9f81613bb2565b9050919050565b60008190508160005260206000209050919050565b818103613ec9575050613fa1565b613ed282613e90565b67ffffffffffffffff811115613eeb57613eea613672565b5b613ef58254613bb2565b613f00828285613d31565b6000601f831160018114613f2f5760008415613f1d578287015490505b613f278582613da2565b865550613f9a565b601f198416613f3d87613ea6565b9650613f4886613c12565b60005b82811015613f7057848901548255600182019150600185019450602081019050613f4b565b86831015613f8d5784890154613f89601f891682613d84565b8355505b6001600288020188555050505b5050505050505b565b600081905092915050565b60008154613fbb81613bb2565b613fc58186613fa3565b94506001821660008114613fe05760018114613ff557614028565b60ff1983168652811515820286019350614028565b613ffe85613c12565b60005b8381101561402057815481890152600182019150602081019050614001565b838801955050505b50505092915050565b600061403d8284613fae565b915081905092915050565b7f4e487b7100000000000000000000000000000000000000000000000000000000600052601160045260246000fd5b6000614082826132af565b91507fffffffffffffffffffffffffffffffffffffffffffffffffffffffffffffffff82036140b4576140b3614048565b5b600182019050919050565b60006140ca826132af565b91506140d5836132af565b92508282039050818111156140ed576140ec614048565b5b92915050565b7f4e487b7100000000000000000000000000000000000000000000000000000000600052603160045260246000fd5b600061412d8261321f565b6141378185613fa3565b935061414781856020860161323b565b80840191505092915050565b600061415f8284614122565b915081905092915050565b600081905092915050565b60008190508160005260206000209050919050565b6000815461419781613bb2565b6141a1818661416a565b945060018216600081146141bc57600181146141d157614204565b60ff1983168652811515820286019350614204565b6141da85614175565b60005b838110156141fc578154818901526001820191506020810190506141dd565b838801955050505b50505092915050565b6000614219828461418a565b915081905092915050565b600061422f826132af565b915061423a836132af565b925082820190508082111561425257614251614048565b5b9291505056fea2646970667358221220cc46beb01f0cf96cfd99bb4e75286be2c0c2a9a9f6cc49c672db156c72d2aa5764736f6c63430008110033",
  "linkReferences": {},
  "deployedLinkReferences": {}
}