{
  "_format": "hh-sol-artifact-1",
  "contractName": "LandContract",
  "sourceName": "contracts/LandContract.sol",
  "abi": [
    {
      "inputs": [
        {
          "internalType": "address",
          "name": "Officer",
          "type": "address"
        }
      ],
      "stateMutability": "nonpayable",
      "type": "constructor"
    },
    {
      "inputs": [
        {
          "internalType": "uint256",
          "name": "",
          "type": "uint256"
        }
      ],
      "name": "addLandRequests",
      "outputs": [
        {
          "internalType": "address",
          "name": "owner",
          "type": "address"
        },
        {
          "internalType": "string",
          "name": "land",
          "type": "string"
        },
        {
          "internalType": "bool",
          "name": "approved",
          "type": "bool"
        },
        {
          "internalType": "string",
          "name": "note",
          "type": "string"
        },
        {
          "internalType": "uint256",
          "name": "userIndex",
          "type": "uint256"
        },
        {
          "internalType": "bool",
          "name": "processed",
          "type": "bool"
        }
      ],
      "stateMutability": "view",
      "type": "function"
    },
    {
      "inputs": [
        {
          "internalType": "address",
          "name": "executorAddress",
          "type": "address"
        }
      ],
      "name": "addWillExecutionRequest",
      "outputs": [],
      "stateMutability": "nonpayable",
      "type": "function"
    },
    {
      "inputs": [
        {
          "internalType": "address",
          "name": "officer",
          "type": "address"
        }
      ],
      "name": "changeLandOfficer",
      "outputs": [],
      "stateMutability": "nonpayable",
      "type": "function"
    },
    {
      "inputs": [],
      "name": "executeWill",
      "outputs": [],
      "stateMutability": "nonpayable",
      "type": "function"
    },
    {
      "inputs": [
        {
          "internalType": "address",
          "name": "user",
          "type": "address"
        },
        {
          "internalType": "uint256",
          "name": "ind",
          "type": "uint256"
        }
      ],
      "name": "getAddLandRequest",
      "outputs": [
        {
          "components": [
            {
              "internalType": "address",
              "name": "owner",
              "type": "address"
            },
            {
              "internalType": "string",
              "name": "land",
              "type": "string"
            },
            {
              "internalType": "bool",
              "name": "approved",
              "type": "bool"
            },
            {
              "internalType": "string",
              "name": "note",
              "type": "string"
            },
            {
              "internalType": "uint256",
              "name": "userIndex",
              "type": "uint256"
            },
            {
              "internalType": "bool",
              "name": "processed",
              "type": "bool"
            }
          ],
          "internalType": "struct LandContract.AddLandRequest",
          "name": "",
          "type": "tuple"
        }
      ],
      "stateMutability": "view",
      "type": "function"
    },
    {
      "inputs": [
        {
          "internalType": "uint256",
          "name": "ind",
          "type": "uint256"
        }
      ],
      "name": "getAddLandRequest",
      "outputs": [
        {
          "components": [
            {
              "internalType": "address",
              "name": "owner",
              "type": "address"
            },
            {
              "internalType": "string",
              "name": "land",
              "type": "string"
            },
            {
              "internalType": "bool",
              "name": "approved",
              "type": "bool"
            },
            {
              "internalType": "string",
              "name": "note",
              "type": "string"
            },
            {
              "internalType": "uint256",
              "name": "userIndex",
              "type": "uint256"
            },
            {
              "internalType": "bool",
              "name": "processed",
              "type": "bool"
            }
          ],
          "internalType": "struct LandContract.AddLandRequest",
          "name": "",
          "type": "tuple"
        }
      ],
      "stateMutability": "view",
      "type": "function"
    },
    {
      "inputs": [],
      "name": "getAddLandRequestsLength",
      "outputs": [
        {
          "internalType": "uint256",
          "name": "",
          "type": "uint256"
        }
      ],
      "stateMutability": "view",
      "type": "function"
    },
    {
      "inputs": [
        {
          "internalType": "string",
          "name": "land",
          "type": "string"
        }
      ],
      "name": "getLandOwner",
      "outputs": [
        {
          "internalType": "address",
          "name": "",
          "type": "address"
        }
      ],
      "stateMutability": "view",
      "type": "function"
    },
    {
      "inputs": [
        {
          "internalType": "uint256",
          "name": "ind",
          "type": "uint256"
        }
      ],
      "name": "getNewUserRequest",
      "outputs": [
        {
          "components": [
            {
              "internalType": "address",
              "name": "userAddress",
              "type": "address"
            },
            {
              "internalType": "address",
              "name": "nominee",
              "type": "address"
            },
            {
              "internalType": "string",
              "name": "aadhar",
              "type": "string"
            },
            {
              "internalType": "bool",
              "name": "approved",
              "type": "bool"
            },
            {
              "internalType": "string",
              "name": "note",
              "type": "string"
            },
            {
              "internalType": "bool",
              "name": "processed",
              "type": "bool"
            }
          ],
          "internalType": "struct LandContract.NewUserRequest",
          "name": "",
          "type": "tuple"
        }
      ],
      "stateMutability": "view",
      "type": "function"
    },
    {
      "inputs": [],
      "name": "getNewUserRequestsLength",
      "outputs": [
        {
          "internalType": "uint256",
          "name": "",
          "type": "uint256"
        }
      ],
      "stateMutability": "view",
      "type": "function"
    },
    {
      "inputs": [
        {
          "internalType": "uint256",
          "name": "ind",
          "type": "uint256"
        }
      ],
      "name": "getSellRequest",
      "outputs": [
        {
          "components": [
            {
              "internalType": "address",
              "name": "seller",
              "type": "address"
            },
            {
              "internalType": "address",
              "name": "buyer",
              "type": "address"
            },
            {
              "internalType": "string",
              "name": "land",
              "type": "string"
            },
            {
              "internalType": "bool",
              "name": "approved",
              "type": "bool"
            },
            {
              "internalType": "string",
              "name": "note",
              "type": "string"
            },
            {
              "internalType": "uint256",
              "name": "userIndex",
              "type": "uint256"
            },
            {
              "internalType": "bool",
              "name": "processed",
              "type": "bool"
            }
          ],
          "internalType": "struct LandContract.SellRequest",
          "name": "",
          "type": "tuple"
        }
      ],
      "stateMutability": "view",
      "type": "function"
    },
    {
      "inputs": [],
      "name": "getSellRequestsLength",
      "outputs": [
        {
          "internalType": "uint256",
          "name": "",
          "type": "uint256"
        }
      ],
      "stateMutability": "view",
      "type": "function"
    },
    {
      "inputs": [
        {
          "internalType": "address",
          "name": "user",
          "type": "address"
        }
      ],
      "name": "getUserAddLandRequestsLength",
      "outputs": [
        {
          "internalType": "uint256",
          "name": "",
          "type": "uint256"
        }
      ],
      "stateMutability": "view",
      "type": "function"
    },
    {
      "inputs": [
        {
          "internalType": "address",
          "name": "user",
          "type": "address"
        }
      ],
      "name": "getUserInfo",
      "outputs": [
        {
          "components": [
            {
              "internalType": "address",
              "name": "userAddress",
              "type": "address"
            },
            {
              "internalType": "address",
              "name": "nominee",
              "type": "address"
            },
            {
              "internalType": "string[]",
              "name": "landsOwned",
              "type": "string[]"
            },
            {
              "internalType": "string",
              "name": "aadhar",
              "type": "string"
            },
            {
              "components": [
                {
                  "internalType": "address",
                  "name": "seller",
                  "type": "address"
                },
                {
                  "internalType": "address",
                  "name": "buyer",
                  "type": "address"
                },
                {
                  "internalType": "string",
                  "name": "land",
                  "type": "string"
                },
                {
                  "internalType": "bool",
                  "name": "approved",
                  "type": "bool"
                },
                {
                  "internalType": "string",
                  "name": "note",
                  "type": "string"
                },
                {
                  "internalType": "uint256",
                  "name": "userIndex",
                  "type": "uint256"
                },
                {
                  "internalType": "bool",
                  "name": "processed",
                  "type": "bool"
                }
              ],
              "internalType": "struct LandContract.SellRequest[]",
              "name": "openSellRequests",
              "type": "tuple[]"
            },
            {
              "internalType": "uint256",
              "name": "totalOpenSellRequests",
              "type": "uint256"
            },
            {
              "components": [
                {
                  "internalType": "address",
                  "name": "owner",
                  "type": "address"
                },
                {
                  "internalType": "string",
                  "name": "land",
                  "type": "string"
                },
                {
                  "internalType": "bool",
                  "name": "approved",
                  "type": "bool"
                },
                {
                  "internalType": "string",
                  "name": "note",
                  "type": "string"
                },
                {
                  "internalType": "uint256",
                  "name": "userIndex",
                  "type": "uint256"
                },
                {
                  "internalType": "bool",
                  "name": "processed",
                  "type": "bool"
                }
              ],
              "internalType": "struct LandContract.AddLandRequest[]",
              "name": "openAddLandRequests",
              "type": "tuple[]"
            },
            {
              "internalType": "uint256",
              "name": "totalOpenAddLandRequests",
              "type": "uint256"
            }
          ],
          "internalType": "struct LandContract.User",
          "name": "",
          "type": "tuple"
        }
      ],
      "stateMutability": "view",
      "type": "function"
    },
    {
      "inputs": [
        {
          "internalType": "address",
          "name": "user",
          "type": "address"
        },
        {
          "internalType": "uint256",
          "name": "ind",
          "type": "uint256"
        }
      ],
      "name": "getUserLand",
      "outputs": [
        {
          "internalType": "string",
          "name": "",
          "type": "string"
        }
      ],
      "stateMutability": "view",
      "type": "function"
    },
    {
      "inputs": [
        {
          "internalType": "address",
          "name": "user",
          "type": "address"
        }
      ],
      "name": "getUserLandLength",
      "outputs": [
        {
          "internalType": "uint256",
          "name": "",
          "type": "uint256"
        }
      ],
      "stateMutability": "view",
      "type": "function"
    },
    {
      "inputs": [
        {
          "internalType": "address",
          "name": "user",
          "type": "address"
        },
        {
          "internalType": "uint256",
          "name": "ind",
          "type": "uint256"
        }
      ],
      "name": "getUserOpenSellRequest",
      "outputs": [
        {
          "components": [
            {
              "internalType": "address",
              "name": "seller",
              "type": "address"
            },
            {
              "internalType": "address",
              "name": "buyer",
              "type": "address"
            },
            {
              "internalType": "string",
              "name": "land",
              "type": "string"
            },
            {
              "internalType": "bool",
              "name": "approved",
              "type": "bool"
            },
            {
              "internalType": "string",
              "name": "note",
              "type": "string"
            },
            {
              "internalType": "uint256",
              "name": "userIndex",
              "type": "uint256"
            },
            {
              "internalType": "bool",
              "name": "processed",
              "type": "bool"
            }
          ],
          "internalType": "struct LandContract.SellRequest",
          "name": "",
          "type": "tuple"
        }
      ],
      "stateMutability": "view",
      "type": "function"
    },
    {
      "inputs": [
        {
          "internalType": "address",
          "name": "user",
          "type": "address"
        }
      ],
      "name": "getUserOpenSellRequestsLength",
      "outputs": [
        {
          "internalType": "uint256",
          "name": "",
          "type": "uint256"
        }
      ],
      "stateMutability": "view",
      "type": "function"
    },
    {
      "inputs": [],
      "name": "landOfficer",
      "outputs": [
        {
          "internalType": "address",
          "name": "",
          "type": "address"
        }
      ],
      "stateMutability": "view",
      "type": "function"
    },
    {
      "inputs": [
        {
          "internalType": "string",
          "name": "",
          "type": "string"
        }
      ],
      "name": "landOwner",
      "outputs": [
        {
          "internalType": "address",
          "name": "",
          "type": "address"
        }
      ],
      "stateMutability": "view",
      "type": "function"
    },
    {
      "inputs": [],
      "name": "manager",
      "outputs": [
        {
          "internalType": "address",
          "name": "",
          "type": "address"
        }
      ],
      "stateMutability": "view",
      "type": "function"
    },
    {
      "inputs": [
        {
          "internalType": "uint256",
          "name": "",
          "type": "uint256"
        }
      ],
      "name": "newUserRequests",
      "outputs": [
        {
          "internalType": "address",
          "name": "userAddress",
          "type": "address"
        },
        {
          "internalType": "address",
          "name": "nominee",
          "type": "address"
        },
        {
          "internalType": "string",
          "name": "aadhar",
          "type": "string"
        },
        {
          "internalType": "bool",
          "name": "approved",
          "type": "bool"
        },
        {
          "internalType": "string",
          "name": "note",
          "type": "string"
        },
        {
          "internalType": "bool",
          "name": "processed",
          "type": "bool"
        }
      ],
      "stateMutability": "view",
      "type": "function"
    },
    {
      "inputs": [
        {
          "internalType": "string",
          "name": "land",
          "type": "string"
        }
      ],
      "name": "requestNewLand",
      "outputs": [],
      "stateMutability": "nonpayable",
      "type": "function"
    },
    {
      "inputs": [
        {
          "internalType": "string",
          "name": "aadhar",
          "type": "string"
        },
        {
          "internalType": "address",
          "name": "nominee",
          "type": "address"
        }
      ],
      "name": "requestNewUser",
      "outputs": [],
      "stateMutability": "nonpayable",
      "type": "function"
    },
    {
      "inputs": [
        {
          "internalType": "address",
          "name": "buyer",
          "type": "address"
        },
        {
          "internalType": "string",
          "name": "land",
          "type": "string"
        }
      ],
      "name": "requestSell",
      "outputs": [],
      "stateMutability": "nonpayable",
      "type": "function"
    },
    {
      "inputs": [
        {
          "internalType": "uint256",
          "name": "",
          "type": "uint256"
        }
      ],
      "name": "sellRequests",
      "outputs": [
        {
          "internalType": "address",
          "name": "seller",
          "type": "address"
        },
        {
          "internalType": "address",
          "name": "buyer",
          "type": "address"
        },
        {
          "internalType": "string",
          "name": "land",
          "type": "string"
        },
        {
          "internalType": "bool",
          "name": "approved",
          "type": "bool"
        },
        {
          "internalType": "string",
          "name": "note",
          "type": "string"
        },
        {
          "internalType": "uint256",
          "name": "userIndex",
          "type": "uint256"
        },
        {
          "internalType": "bool",
          "name": "processed",
          "type": "bool"
        }
      ],
      "stateMutability": "view",
      "type": "function"
    },
    {
      "inputs": [
        {
          "internalType": "address",
          "name": "",
          "type": "address"
        }
      ],
      "name": "userInfo",
      "outputs": [
        {
          "internalType": "address",
          "name": "userAddress",
          "type": "address"
        },
        {
          "internalType": "address",
          "name": "nominee",
          "type": "address"
        },
        {
          "internalType": "string",
          "name": "aadhar",
          "type": "string"
        },
        {
          "internalType": "uint256",
          "name": "totalOpenSellRequests",
          "type": "uint256"
        },
        {
          "internalType": "uint256",
          "name": "totalOpenAddLandRequests",
          "type": "uint256"
        }
      ],
      "stateMutability": "view",
      "type": "function"
    },
    {
      "inputs": [
        {
          "internalType": "uint256",
          "name": "reqIndex",
          "type": "uint256"
        },
        {
          "internalType": "bool",
          "name": "approved",
          "type": "bool"
        },
        {
          "internalType": "string",
          "name": "note",
          "type": "string"
        }
      ],
      "name": "verifyAddLandRequest",
      "outputs": [],
      "stateMutability": "nonpayable",
      "type": "function"
    },
    {
      "inputs": [
        {
          "internalType": "uint256",
          "name": "reqInd",
          "type": "uint256"
        },
        {
          "internalType": "bool",
          "name": "approved",
          "type": "bool"
        },
        {
          "internalType": "string",
          "name": "note",
          "type": "string"
        }
      ],
      "name": "verifyNewUser",
      "outputs": [],
      "stateMutability": "nonpayable",
      "type": "function"
    },
    {
      "inputs": [
        {
          "internalType": "uint256",
          "name": "reqIndex",
          "type": "uint256"
        },
        {
          "internalType": "bool",
          "name": "approved",
          "type": "bool"
        },
        {
          "internalType": "string",
          "name": "note",
          "type": "string"
        }
      ],
      "name": "verifySellRequest",
      "outputs": [],
      "stateMutability": "nonpayable",
      "type": "function"
    },
    {
      "inputs": [
        {
          "internalType": "uint256",
          "name": "",
          "type": "uint256"
        }
      ],
      "name": "willExecutionRequests",
      "outputs": [
        {
          "internalType": "address",
          "name": "",
          "type": "address"
        }
      ],
      "stateMutability": "view",
      "type": "function"
    }
  ],
  "bytecode": "0x60806040523480156200001157600080fd5b5060405162005a1638038062005a16833981810160405281019062000037919062000129565b336000806101000a81548173ffffffffffffffffffffffffffffffffffffffff021916908373ffffffffffffffffffffffffffffffffffffffff16021790555080600160006101000a81548173ffffffffffffffffffffffffffffffffffffffff021916908373ffffffffffffffffffffffffffffffffffffffff160217905550506200015b565b600080fd5b600073ffffffffffffffffffffffffffffffffffffffff82169050919050565b6000620000f182620000c4565b9050919050565b6200010381620000e4565b81146200010f57600080fd5b50565b6000815190506200012381620000f8565b92915050565b600060208284031215620001425762000141620000bf565b5b6000620001528482850162000112565b91505092915050565b6158ab806200016b6000396000f3fe608060405234801561001057600080fd5b50600436106101e55760003560e01c806359da345d1161010f578063980d1ae9116100a2578063bb55cf9411610071578063bb55cf9414610614578063d0dc68e514610644578063f0016dfb14610674578063f905d4e014610690576101e5565b8063980d1ae91461057a5780639be63691146105aa578063a5b83635146105da578063ae8a2ef6146105e4576101e5565b806389301e1b116100de57806389301e1b146104db5780638fe2b04a146105105780639168870f1461052c57806394e5164c1461055c576101e5565b806359da345d1461043c5780636386c1c71461045a578063658601951461048a57806383a99014146104a6576101e5565b80633ff97b9a116101875780634bb060d7116101565780634bb060d714610390578063529b1e4e146103ac5780635419f84d146103dc57806358e383481461040c576101e5565b80633ff97b9a146102f657806344cefff814610326578063481c6a751461034257806348c24e1114610360576101e5565b80631af6d297116101c35780631af6d297146102725780632c132b811461028e5780632d0bc5c4146102be5780633a8c2d10146102da576101e5565b8063032b361d146101ea5780631959a002146102085780631a5230bb1461023c575b600080fd5b6101f26106ae565b6040516101ff91906143d0565b60405180910390f35b610222600480360381019061021d919061445d565b6106bb565b604051610233959493929190614529565b60405180910390f35b610256600480360381019061025191906145af565b6107b9565b60405161026997969594939291906145f7565b60405180910390f35b61028c6004803603810190610287919061445d565b610975565b005b6102a860048036038101906102a39190614674565b610a33565b6040516102b591906147ce565b60405180910390f35b6102d860048036038101906102d39190614951565b610cc0565b005b6102f460048036038101906102ef91906149c0565b61121f565b005b610310600480360381019061030b919061445d565b611530565b60405161031d91906143d0565b60405180910390f35b610340600480360381019061033b9190614a09565b61157f565b005b61034a61171e565b6040516103579190614a65565b60405180910390f35b61037a600480360381019061037591906149c0565b611742565b6040516103879190614a65565b60405180910390f35b6103aa60048036038101906103a59190614951565b61178b565b005b6103c660048036038101906103c19190614674565b611e01565b6040516103d39190614a80565b60405180910390f35b6103f660048036038101906103f1919061445d565b611ef2565b60405161040391906143d0565b60405180910390f35b610426600480360381019061042191906145af565b611f41565b60405161043391906147ce565b60405180910390f35b61044461218d565b60405161045191906143d0565b60405180910390f35b610474600480360381019061046f919061445d565b61219a565b6040516104819190614ee0565b60405180910390f35b6104a4600480360381019061049f919061445d565b6128a7565b005b6104c060048036038101906104bb91906145af565b612943565b6040516104d296959493929190614f02565b60405180910390f35b6104f560048036038101906104f091906145af565b612ad9565b60405161050796959493929190614f71565b60405180910390f35b61052a60048036038101906105259190614fe0565b612c8f565b005b61054660048036038101906105419190614674565b61304b565b60405161055391906150cc565b60405180910390f35b610564613282565b6040516105719190614a65565b60405180910390f35b610594600480360381019061058f91906145af565b6132a8565b6040516105a1919061517e565b60405180910390f35b6105c460048036038101906105bf91906145af565b6134ea565b6040516105d19190614a65565b60405180910390f35b6105e2613529565b005b6105fe60048036038101906105f991906149c0565b6137b0565b60405161060b9190614a65565b60405180910390f35b61062e6004803603810190610629919061445d565b6137f8565b60405161063b91906143d0565b60405180910390f35b61065e600480360381019061065991906145af565b613847565b60405161066b91906150cc565b60405180910390f35b61068e60048036038101906106899190614951565b613a3d565b005b610698613df9565b6040516106a591906143d0565b60405180910390f35b6000600580549050905090565b60026020528060005260406000206000915090508060000160009054906101000a900473ffffffffffffffffffffffffffffffffffffffff16908060010160009054906101000a900473ffffffffffffffffffffffffffffffffffffffff169080600301805461072a906151cf565b80601f0160208091040260200160405190810160405280929190818152602001828054610756906151cf565b80156107a35780601f10610778576101008083540402835291602001916107a3565b820191906000526020600020905b81548152906001019060200180831161078657829003601f168201915b5050505050908060050154908060070154905085565b600581815481106107c957600080fd5b90600052602060002090600702016000915090508060000160009054906101000a900473ffffffffffffffffffffffffffffffffffffffff16908060010160009054906101000a900473ffffffffffffffffffffffffffffffffffffffff1690806002018054610838906151cf565b80601f0160208091040260200160405190810160405280929190818152602001828054610864906151cf565b80156108b15780601f10610886576101008083540402835291602001916108b1565b820191906000526020600020905b81548152906001019060200180831161089457829003601f168201915b5050505050908060030160009054906101000a900460ff16908060040180546108d9906151cf565b80601f0160208091040260200160405190810160405280929190818152602001828054610905906151cf565b80156109525780601f1061092757610100808354040283529160200191610952565b820191906000526020600020905b81548152906001019060200180831161093557829003601f168201915b5050505050908060050154908060060160009054906101000a900460ff16905087565b60008054906101000a900473ffffffffffffffffffffffffffffffffffffffff1673ffffffffffffffffffffffffffffffffffffffff163373ffffffffffffffffffffffffffffffffffffffff16146109cd57600080fd5b6007819080600181540180825580915050600190039060005260206000200160009091909190916101000a81548173ffffffffffffffffffffffffffffffffffffffff021916908373ffffffffffffffffffffffffffffffffffffffff16021790555050565b610a3b6141c6565b600260008473ffffffffffffffffffffffffffffffffffffffff1673ffffffffffffffffffffffffffffffffffffffff1681526020019081526020016000206004018281548110610a8f57610a8e615200565b5b90600052602060002090600702016040518060e00160405290816000820160009054906101000a900473ffffffffffffffffffffffffffffffffffffffff1673ffffffffffffffffffffffffffffffffffffffff1673ffffffffffffffffffffffffffffffffffffffff1681526020016001820160009054906101000a900473ffffffffffffffffffffffffffffffffffffffff1673ffffffffffffffffffffffffffffffffffffffff1673ffffffffffffffffffffffffffffffffffffffff168152602001600282018054610b64906151cf565b80601f0160208091040260200160405190810160405280929190818152602001828054610b90906151cf565b8015610bdd5780601f10610bb257610100808354040283529160200191610bdd565b820191906000526020600020905b815481529060010190602001808311610bc057829003601f168201915b505050505081526020016003820160009054906101000a900460ff16151515158152602001600482018054610c11906151cf565b80601f0160208091040260200160405190810160405280929190818152602001828054610c3d906151cf565b8015610c8a5780601f10610c5f57610100808354040283529160200191610c8a565b820191906000526020600020905b815481529060010190602001808311610c6d57829003601f168201915b50505050508152602001600582015481526020016006820160009054906101000a900460ff161515151581525050905092915050565b600160009054906101000a900473ffffffffffffffffffffffffffffffffffffffff1673ffffffffffffffffffffffffffffffffffffffff163373ffffffffffffffffffffffffffffffffffffffff1614610d1a57600080fd5b600073ffffffffffffffffffffffffffffffffffffffff166002600060068681548110610d4a57610d49615200565b5b906000526020600020906006020160000160009054906101000a900473ffffffffffffffffffffffffffffffffffffffff1673ffffffffffffffffffffffffffffffffffffffff1673ffffffffffffffffffffffffffffffffffffffff16815260200190815260200160002060000160009054906101000a900473ffffffffffffffffffffffffffffffffffffffff1673ffffffffffffffffffffffffffffffffffffffff1603610dfa57600080fd5b8160068481548110610e0f57610e0e615200565b5b906000526020600020906006020160020160006101000a81548160ff0219169083151502179055508060068481548110610e4c57610e4b615200565b5b90600052602060002090600602016003019081610e6991906153db565b50600160068481548110610e8057610e7f615200565b5b906000526020600020906006020160050160006101000a81548160ff021916908315150217905550816002600060068681548110610ec157610ec0615200565b5b906000526020600020906006020160000160009054906101000a900473ffffffffffffffffffffffffffffffffffffffff1673ffffffffffffffffffffffffffffffffffffffff1673ffffffffffffffffffffffffffffffffffffffff16815260200190815260200160002060060160068581548110610f4457610f43615200565b5b90600052602060002090600602016004015481548110610f6757610f66615200565b5b906000526020600020906006020160020160006101000a81548160ff021916908315150217905550806002600060068681548110610fa857610fa7615200565b5b906000526020600020906006020160000160009054906101000a900473ffffffffffffffffffffffffffffffffffffffff1673ffffffffffffffffffffffffffffffffffffffff1673ffffffffffffffffffffffffffffffffffffffff1681526020019081526020016000206006016006858154811061102b5761102a615200565b5b9060005260206000209060060201600401548154811061104e5761104d615200565b5b9060005260206000209060060201600301908161106b91906153db565b508161107657600080fd5b600260006006858154811061108e5761108d615200565b5b906000526020600020906006020160000160009054906101000a900473ffffffffffffffffffffffffffffffffffffffff1673ffffffffffffffffffffffffffffffffffffffff1673ffffffffffffffffffffffffffffffffffffffff1681526020019081526020016000206002016006848154811061111157611110615200565b5b906000526020600020906006020160010190806001815401808255809150506001900390600052602060002001600090919091909150908161115391906154d8565b506006838154811061116857611167615200565b5b906000526020600020906006020160000160009054906101000a900473ffffffffffffffffffffffffffffffffffffffff166003600685815481106111b0576111af615200565b5b90600052602060002090600602016001016040516111ce919061564e565b908152602001604051809103902060006101000a81548173ffffffffffffffffffffffffffffffffffffffff021916908373ffffffffffffffffffffffffffffffffffffffff160217905550505050565b6000600260003373ffffffffffffffffffffffffffffffffffffffff1673ffffffffffffffffffffffffffffffffffffffff16815260200190815260200160002060070154905060006040518060c001604052803373ffffffffffffffffffffffffffffffffffffffff168152602001848152602001600015158152602001604051806020016040528060008152508152602001838152602001600015158152509050600681908060018154018082558091505060019003906000526020600020906006020160009091909190915060008201518160000160006101000a81548173ffffffffffffffffffffffffffffffffffffffff021916908373ffffffffffffffffffffffffffffffffffffffff160217905550602082015181600101908161134a91906153db565b5060408201518160020160006101000a81548160ff021916908315150217905550606082015181600301908161138091906153db565b506080820151816004015560a08201518160050160006101000a81548160ff0219169083151502179055505050600260003373ffffffffffffffffffffffffffffffffffffffff1673ffffffffffffffffffffffffffffffffffffffff16815260200190815260200160002060060181908060018154018082558091505060019003906000526020600020906006020160009091909190915060008201518160000160006101000a81548173ffffffffffffffffffffffffffffffffffffffff021916908373ffffffffffffffffffffffffffffffffffffffff160217905550602082015181600101908161147591906153db565b5060408201518160020160006101000a81548160ff02191690831515021790555060608201518160030190816114ab91906153db565b506080820151816004015560a08201518160050160006101000a81548160ff02191690831515021790555050506001826114e59190615694565b600260003373ffffffffffffffffffffffffffffffffffffffff1673ffffffffffffffffffffffffffffffffffffffff16815260200190815260200160002060070181905550505050565b6000600260008373ffffffffffffffffffffffffffffffffffffffff1673ffffffffffffffffffffffffffffffffffffffff168152602001908152602001600020600601805490509050919050565b60006040518060c001604052803373ffffffffffffffffffffffffffffffffffffffff1681526020018373ffffffffffffffffffffffffffffffffffffffff168152602001848152602001600015158152602001604051806020016040528060008152508152602001600015158152509050600481908060018154018082558091505060019003906000526020600020906006020160009091909190915060008201518160000160006101000a81548173ffffffffffffffffffffffffffffffffffffffff021916908373ffffffffffffffffffffffffffffffffffffffff16021790555060208201518160010160006101000a81548173ffffffffffffffffffffffffffffffffffffffff021916908373ffffffffffffffffffffffffffffffffffffffff16021790555060408201518160020190816116c091906153db565b5060608201518160030160006101000a81548160ff02191690831515021790555060808201518160040190816116f691906153db565b5060a08201518160050160006101000a81548160ff0219169083151502179055505050505050565b60008054906101000a900473ffffffffffffffffffffffffffffffffffffffff1681565b6003818051602081018201805184825260208301602085012081835280955050505050506000915054906101000a900473ffffffffffffffffffffffffffffffffffffffff1681565b600160009054906101000a900473ffffffffffffffffffffffffffffffffffffffff1673ffffffffffffffffffffffffffffffffffffffff163373ffffffffffffffffffffffffffffffffffffffff16146117e557600080fd5b600073ffffffffffffffffffffffffffffffffffffffff16600260006005868154811061181557611814615200565b5b906000526020600020906007020160000160009054906101000a900473ffffffffffffffffffffffffffffffffffffffff1673ffffffffffffffffffffffffffffffffffffffff1673ffffffffffffffffffffffffffffffffffffffff16815260200190815260200160002060000160009054906101000a900473ffffffffffffffffffffffffffffffffffffffff1673ffffffffffffffffffffffffffffffffffffffff16036118c557600080fd5b600073ffffffffffffffffffffffffffffffffffffffff1660026000600586815481106118f5576118f4615200565b5b906000526020600020906007020160010160009054906101000a900473ffffffffffffffffffffffffffffffffffffffff1673ffffffffffffffffffffffffffffffffffffffff1673ffffffffffffffffffffffffffffffffffffffff16815260200190815260200160002060000160009054906101000a900473ffffffffffffffffffffffffffffffffffffffff1673ffffffffffffffffffffffffffffffffffffffff16036119a557600080fd5b600583815481106119b9576119b8615200565b5b906000526020600020906007020160000160009054906101000a900473ffffffffffffffffffffffffffffffffffffffff1673ffffffffffffffffffffffffffffffffffffffff16600360058581548110611a1757611a16615200565b5b9060005260206000209060070201600201604051611a35919061564e565b908152602001604051809103902060009054906101000a900473ffffffffffffffffffffffffffffffffffffffff1673ffffffffffffffffffffffffffffffffffffffff1614611a8457600080fd5b8160058481548110611a9957611a98615200565b5b906000526020600020906007020160030160006101000a81548160ff0219169083151502179055508060058481548110611ad657611ad5615200565b5b90600052602060002090600702016004019081611af391906153db565b50600160058481548110611b0a57611b09615200565b5b906000526020600020906007020160060160006101000a81548160ff021916908315150217905550816002600060058681548110611b4b57611b4a615200565b5b906000526020600020906007020160000160009054906101000a900473ffffffffffffffffffffffffffffffffffffffff1673ffffffffffffffffffffffffffffffffffffffff1673ffffffffffffffffffffffffffffffffffffffff16815260200190815260200160002060040160058581548110611bce57611bcd615200565b5b90600052602060002090600702016005015481548110611bf157611bf0615200565b5b906000526020600020906007020160030160006101000a81548160ff021916908315150217905550806002600060058681548110611c3257611c31615200565b5b906000526020600020906007020160000160009054906101000a900473ffffffffffffffffffffffffffffffffffffffff1673ffffffffffffffffffffffffffffffffffffffff1673ffffffffffffffffffffffffffffffffffffffff16815260200190815260200160002060040160058581548110611cb557611cb4615200565b5b90600052602060002090600702016005015481548110611cd857611cd7615200565b5b90600052602060002090600702016004019081611cf591906153db565b5081611d0057600080fd5b611dfc60058481548110611d1757611d16615200565b5b90600052602060002090600702016002018054611d33906151cf565b80601f0160208091040260200160405190810160405280929190818152602001828054611d5f906151cf565b8015611dac5780601f10611d8157610100808354040283529160200191611dac565b820191906000526020600020905b815481529060010190602001808311611d8f57829003601f168201915b505050505060058581548110611dc557611dc4615200565b5b906000526020600020906007020160010160009054906101000a900473ffffffffffffffffffffffffffffffffffffffff16613e06565b505050565b6060600260008473ffffffffffffffffffffffffffffffffffffffff1673ffffffffffffffffffffffffffffffffffffffff1681526020019081526020016000206002018281548110611e5757611e56615200565b5b906000526020600020018054611e6c906151cf565b80601f0160208091040260200160405190810160405280929190818152602001828054611e98906151cf565b8015611ee55780601f10611eba57610100808354040283529160200191611ee5565b820191906000526020600020905b815481529060010190602001808311611ec857829003601f168201915b5050505050905092915050565b6000600260008373ffffffffffffffffffffffffffffffffffffffff1673ffffffffffffffffffffffffffffffffffffffff168152602001908152602001600020600201805490509050919050565b611f496141c6565b60058281548110611f5d57611f5c615200565b5b90600052602060002090600702016040518060e00160405290816000820160009054906101000a900473ffffffffffffffffffffffffffffffffffffffff1673ffffffffffffffffffffffffffffffffffffffff1673ffffffffffffffffffffffffffffffffffffffff1681526020016001820160009054906101000a900473ffffffffffffffffffffffffffffffffffffffff1673ffffffffffffffffffffffffffffffffffffffff1673ffffffffffffffffffffffffffffffffffffffff168152602001600282018054612032906151cf565b80601f016020809104026020016040519081016040528092919081815260200182805461205e906151cf565b80156120ab5780601f10612080576101008083540402835291602001916120ab565b820191906000526020600020905b81548152906001019060200180831161208e57829003601f168201915b505050505081526020016003820160009054906101000a900460ff161515151581526020016004820180546120df906151cf565b80601f016020809104026020016040519081016040528092919081815260200182805461210b906151cf565b80156121585780601f1061212d57610100808354040283529160200191612158565b820191906000526020600020905b81548152906001019060200180831161213b57829003601f168201915b50505050508152602001600582015481526020016006820160009054906101000a900460ff1615151515815250509050919050565b6000600680549050905090565b6121a2614233565b600260008373ffffffffffffffffffffffffffffffffffffffff1673ffffffffffffffffffffffffffffffffffffffff168152602001908152602001600020604051806101000160405290816000820160009054906101000a900473ffffffffffffffffffffffffffffffffffffffff1673ffffffffffffffffffffffffffffffffffffffff1673ffffffffffffffffffffffffffffffffffffffff1681526020016001820160009054906101000a900473ffffffffffffffffffffffffffffffffffffffff1673ffffffffffffffffffffffffffffffffffffffff1673ffffffffffffffffffffffffffffffffffffffff16815260200160028201805480602002602001604051908101604052809291908181526020016000905b8282101561236a5783829060005260206000200180546122dd906151cf565b80601f0160208091040260200160405190810160405280929190818152602001828054612309906151cf565b80156123565780601f1061232b57610100808354040283529160200191612356565b820191906000526020600020905b81548152906001019060200180831161233957829003601f168201915b5050505050815260200190600101906122be565b505050508152602001600382018054612382906151cf565b80601f01602080910402602001604051908101604052809291908181526020018280546123ae906151cf565b80156123fb5780601f106123d0576101008083540402835291602001916123fb565b820191906000526020600020905b8154815290600101906020018083116123de57829003601f168201915b5050505050815260200160048201805480602002602001604051908101604052809291908181526020016000905b8282101561266b57838290600052602060002090600702016040518060e00160405290816000820160009054906101000a900473ffffffffffffffffffffffffffffffffffffffff1673ffffffffffffffffffffffffffffffffffffffff1673ffffffffffffffffffffffffffffffffffffffff1681526020016001820160009054906101000a900473ffffffffffffffffffffffffffffffffffffffff1673ffffffffffffffffffffffffffffffffffffffff1673ffffffffffffffffffffffffffffffffffffffff168152602001600282018054612508906151cf565b80601f0160208091040260200160405190810160405280929190818152602001828054612534906151cf565b80156125815780601f1061255657610100808354040283529160200191612581565b820191906000526020600020905b81548152906001019060200180831161256457829003601f168201915b505050505081526020016003820160009054906101000a900460ff161515151581526020016004820180546125b5906151cf565b80601f01602080910402602001604051908101604052809291908181526020018280546125e1906151cf565b801561262e5780601f106126035761010080835404028352916020019161262e565b820191906000526020600020905b81548152906001019060200180831161261157829003601f168201915b50505050508152602001600582015481526020016006820160009054906101000a900460ff16151515158152505081526020019060010190612429565b5050505081526020016005820154815260200160068201805480602002602001604051908101604052809291908181526020016000905b8282101561288e57838290600052602060002090600602016040518060c00160405290816000820160009054906101000a900473ffffffffffffffffffffffffffffffffffffffff1673ffffffffffffffffffffffffffffffffffffffff1673ffffffffffffffffffffffffffffffffffffffff16815260200160018201805461272b906151cf565b80601f0160208091040260200160405190810160405280929190818152602001828054612757906151cf565b80156127a45780601f10612779576101008083540402835291602001916127a4565b820191906000526020600020905b81548152906001019060200180831161278757829003601f168201915b505050505081526020016002820160009054906101000a900460ff161515151581526020016003820180546127d8906151cf565b80601f0160208091040260200160405190810160405280929190818152602001828054612804906151cf565b80156128515780601f1061282657610100808354040283529160200191612851565b820191906000526020600020905b81548152906001019060200180831161283457829003601f168201915b50505050508152602001600482015481526020016005820160009054906101000a900460ff161515151581525050815260200190600101906126a2565b5050505081526020016007820154815250509050919050565b60008054906101000a900473ffffffffffffffffffffffffffffffffffffffff1673ffffffffffffffffffffffffffffffffffffffff163373ffffffffffffffffffffffffffffffffffffffff16146128ff57600080fd5b80600160006101000a81548173ffffffffffffffffffffffffffffffffffffffff021916908373ffffffffffffffffffffffffffffffffffffffff16021790555050565b6006818154811061295357600080fd5b90600052602060002090600602016000915090508060000160009054906101000a900473ffffffffffffffffffffffffffffffffffffffff169080600101805461299c906151cf565b80601f01602080910402602001604051908101604052809291908181526020018280546129c8906151cf565b8015612a155780601f106129ea57610100808354040283529160200191612a15565b820191906000526020600020905b8154815290600101906020018083116129f857829003601f168201915b5050505050908060020160009054906101000a900460ff1690806003018054612a3d906151cf565b80601f0160208091040260200160405190810160405280929190818152602001828054612a69906151cf565b8015612ab65780601f10612a8b57610100808354040283529160200191612ab6565b820191906000526020600020905b815481529060010190602001808311612a9957829003601f168201915b5050505050908060040154908060050160009054906101000a900460ff16905086565b60048181548110612ae957600080fd5b90600052602060002090600602016000915090508060000160009054906101000a900473ffffffffffffffffffffffffffffffffffffffff16908060010160009054906101000a900473ffffffffffffffffffffffffffffffffffffffff1690806002018054612b58906151cf565b80601f0160208091040260200160405190810160405280929190818152602001828054612b84906151cf565b8015612bd15780601f10612ba657610100808354040283529160200191612bd1565b820191906000526020600020905b815481529060010190602001808311612bb457829003601f168201915b5050505050908060030160009054906101000a900460ff1690806004018054612bf9906151cf565b80601f0160208091040260200160405190810160405280929190818152602001828054612c25906151cf565b8015612c725780601f10612c4757610100808354040283529160200191612c72565b820191906000526020600020905b815481529060010190602001808311612c5557829003601f168201915b5050505050908060050160009054906101000a900460ff16905086565b6000600260003373ffffffffffffffffffffffffffffffffffffffff1673ffffffffffffffffffffffffffffffffffffffff16815260200190815260200160002060050154905060006040518060e001604052803373ffffffffffffffffffffffffffffffffffffffff1681526020018573ffffffffffffffffffffffffffffffffffffffff168152602001848152602001600015158152602001604051806020016040528060008152508152602001838152602001600015158152509050600581908060018154018082558091505060019003906000526020600020906007020160009091909190915060008201518160000160006101000a81548173ffffffffffffffffffffffffffffffffffffffff021916908373ffffffffffffffffffffffffffffffffffffffff16021790555060208201518160010160006101000a81548173ffffffffffffffffffffffffffffffffffffffff021916908373ffffffffffffffffffffffffffffffffffffffff1602179055506040820151816002019081612e1d91906153db565b5060608201518160030160006101000a81548160ff0219169083151502179055506080820151816004019081612e5391906153db565b5060a0820151816005015560c08201518160060160006101000a81548160ff0219169083151502179055505050600260003373ffffffffffffffffffffffffffffffffffffffff1673ffffffffffffffffffffffffffffffffffffffff16815260200190815260200160002060040181908060018154018082558091505060019003906000526020600020906007020160009091909190915060008201518160000160006101000a81548173ffffffffffffffffffffffffffffffffffffffff021916908373ffffffffffffffffffffffffffffffffffffffff16021790555060208201518160010160006101000a81548173ffffffffffffffffffffffffffffffffffffffff021916908373ffffffffffffffffffffffffffffffffffffffff1602179055506040820151816002019081612f8f91906153db565b5060608201518160030160006101000a81548160ff0219169083151502179055506080820151816004019081612fc591906153db565b5060a0820151816005015560c08201518160060160006101000a81548160ff0219169083151502179055505050600182612fff9190615694565b600260003373ffffffffffffffffffffffffffffffffffffffff1673ffffffffffffffffffffffffffffffffffffffff1681526020019081526020016000206005018190555050505050565b6130536142a4565b600260008473ffffffffffffffffffffffffffffffffffffffff1673ffffffffffffffffffffffffffffffffffffffff16815260200190815260200160002060060182815481106130a7576130a6615200565b5b90600052602060002090600602016040518060c00160405290816000820160009054906101000a900473ffffffffffffffffffffffffffffffffffffffff1673ffffffffffffffffffffffffffffffffffffffff1673ffffffffffffffffffffffffffffffffffffffff168152602001600182018054613126906151cf565b80601f0160208091040260200160405190810160405280929190818152602001828054613152906151cf565b801561319f5780601f106131745761010080835404028352916020019161319f565b820191906000526020600020905b81548152906001019060200180831161318257829003601f168201915b505050505081526020016002820160009054906101000a900460ff161515151581526020016003820180546131d3906151cf565b80601f01602080910402602001604051908101604052809291908181526020018280546131ff906151cf565b801561324c5780601f106132215761010080835404028352916020019161324c565b820191906000526020600020905b81548152906001019060200180831161322f57829003601f168201915b50505050508152602001600482015481526020016005820160009054906101000a900460ff161515151581525050905092915050565b600160009054906101000a900473ffffffffffffffffffffffffffffffffffffffff1681565b6132b06142f4565b600482815481106132c4576132c3615200565b5b90600052602060002090600602016040518060c00160405290816000820160009054906101000a900473ffffffffffffffffffffffffffffffffffffffff1673ffffffffffffffffffffffffffffffffffffffff1673ffffffffffffffffffffffffffffffffffffffff1681526020016001820160009054906101000a900473ffffffffffffffffffffffffffffffffffffffff1673ffffffffffffffffffffffffffffffffffffffff1673ffffffffffffffffffffffffffffffffffffffff168152602001600282018054613399906151cf565b80601f01602080910402602001604051908101604052809291908181526020018280546133c5906151cf565b80156134125780601f106133e757610100808354040283529160200191613412565b820191906000526020600020905b8154815290600101906020018083116133f557829003601f168201915b505050505081526020016003820160009054906101000a900460ff16151515158152602001600482018054613446906151cf565b80601f0160208091040260200160405190810160405280929190818152602001828054613472906151cf565b80156134bf5780601f10613494576101008083540402835291602001916134bf565b820191906000526020600020905b8154815290600101906020018083116134a257829003601f168201915b505050505081526020016005820160009054906101000a900460ff1615151515815250509050919050565b600781815481106134fa57600080fd5b906000526020600020016000915054906101000a900473ffffffffffffffffffffffffffffffffffffffff1681565b600160009054906101000a900473ffffffffffffffffffffffffffffffffffffffff1673ffffffffffffffffffffffffffffffffffffffff163373ffffffffffffffffffffffffffffffffffffffff161461358357600080fd5b5b600060078054905011156137ae576000600760016007805490506135a891906156c8565b815481106135b9576135b8615200565b5b9060005260206000200160009054906101000a900473ffffffffffffffffffffffffffffffffffffffff16905060078054806135f8576135f76156fc565b5b6001900381819060005260206000200160006101000a81549073ffffffffffffffffffffffffffffffffffffffff021916905590556000600260008373ffffffffffffffffffffffffffffffffffffffff1673ffffffffffffffffffffffffffffffffffffffff16815260200190815260200160002090505b6000816002018054905011156137a7576000816002016001836002018054905061369b91906156c8565b815481106136ac576136ab615200565b5b906000526020600020019050816002018054806136cc576136cb6156fc565b5b6001900381819060005260206000200160006136e8919061435a565b90556137a18180546136f9906151cf565b80601f0160208091040260200160405190810160405280929190818152602001828054613725906151cf565b80156137725780601f1061374757610100808354040283529160200191613772565b820191906000526020600020905b81548152906001019060200180831161375557829003601f168201915b50505050508360010160009054906101000a900473ffffffffffffffffffffffffffffffffffffffff16613e06565b50613671565b5050613584565b565b60006003826040516137c2919061575c565b908152602001604051809103902060009054906101000a900473ffffffffffffffffffffffffffffffffffffffff169050919050565b6000600260008373ffffffffffffffffffffffffffffffffffffffff1673ffffffffffffffffffffffffffffffffffffffff168152602001908152602001600020600401805490509050919050565b61384f6142a4565b6006828154811061386357613862615200565b5b90600052602060002090600602016040518060c00160405290816000820160009054906101000a900473ffffffffffffffffffffffffffffffffffffffff1673ffffffffffffffffffffffffffffffffffffffff1673ffffffffffffffffffffffffffffffffffffffff1681526020016001820180546138e2906151cf565b80601f016020809104026020016040519081016040528092919081815260200182805461390e906151cf565b801561395b5780601f106139305761010080835404028352916020019161395b565b820191906000526020600020905b81548152906001019060200180831161393e57829003601f168201915b505050505081526020016002820160009054906101000a900460ff1615151515815260200160038201805461398f906151cf565b80601f01602080910402602001604051908101604052809291908181526020018280546139bb906151cf565b8015613a085780601f106139dd57610100808354040283529160200191613a08565b820191906000526020600020905b8154815290600101906020018083116139eb57829003601f168201915b50505050508152602001600482015481526020016005820160009054906101000a900460ff1615151515815250509050919050565b600160009054906101000a900473ffffffffffffffffffffffffffffffffffffffff1673ffffffffffffffffffffffffffffffffffffffff163373ffffffffffffffffffffffffffffffffffffffff1614613a9757600080fd5b600073ffffffffffffffffffffffffffffffffffffffff166002600060048681548110613ac757613ac6615200565b5b906000526020600020906006020160000160009054906101000a900473ffffffffffffffffffffffffffffffffffffffff1673ffffffffffffffffffffffffffffffffffffffff1673ffffffffffffffffffffffffffffffffffffffff16815260200190815260200160002060000160009054906101000a900473ffffffffffffffffffffffffffffffffffffffff1673ffffffffffffffffffffffffffffffffffffffff1614613b7757600080fd5b60006002600060048681548110613b9157613b90615200565b5b906000526020600020906006020160000160009054906101000a900473ffffffffffffffffffffffffffffffffffffffff1673ffffffffffffffffffffffffffffffffffffffff1673ffffffffffffffffffffffffffffffffffffffff168152602001908152602001600020905060048481548110613c1357613c12615200565b5b9060005260206000209060060201600201816003019081613c3491906154d8565b5060048481548110613c4957613c48615200565b5b906000526020600020906006020160000160009054906101000a900473ffffffffffffffffffffffffffffffffffffffff168160000160006101000a81548173ffffffffffffffffffffffffffffffffffffffff021916908373ffffffffffffffffffffffffffffffffffffffff16021790555060048481548110613cd157613cd0615200565b5b906000526020600020906006020160010160009054906101000a900473ffffffffffffffffffffffffffffffffffffffff168160010160006101000a81548173ffffffffffffffffffffffffffffffffffffffff021916908373ffffffffffffffffffffffffffffffffffffffff1602179055508260048581548110613d5a57613d59615200565b5b906000526020600020906006020160030160006101000a81548160ff0219169083151502179055508160048581548110613d9757613d96615200565b5b90600052602060002090600602016004019081613db491906153db565b50600160048581548110613dcb57613dca615200565b5b906000526020600020906006020160050160006101000a81548160ff02191690831515021790555050505050565b6000600480549050905090565b6000600383604051613e18919061575c565b908152602001604051809103902060009054906101000a900473ffffffffffffffffffffffffffffffffffffffff169050600260008373ffffffffffffffffffffffffffffffffffffffff1673ffffffffffffffffffffffffffffffffffffffff16815260200190815260200160002060020183908060018154018082558091505060019003906000526020600020016000909190919091509081613ebd91906153db565b506000805b600260008473ffffffffffffffffffffffffffffffffffffffff1673ffffffffffffffffffffffffffffffffffffffff16815260200190815260200160002060020180549050811015613faa578480519060200120600260008573ffffffffffffffffffffffffffffffffffffffff1673ffffffffffffffffffffffffffffffffffffffff1681526020019081526020016000206002018281548110613f6b57613f6a615200565b5b90600052602060002001604051613f829190615816565b604051809103902003613f9757809150613faa565b8080613fa29061582d565b915050613ec2565b5060008190505b6001600260008573ffffffffffffffffffffffffffffffffffffffff1673ffffffffffffffffffffffffffffffffffffffff1681526020019081526020016000206002018054905061400391906156c8565b8110156140f257600260008473ffffffffffffffffffffffffffffffffffffffff1673ffffffffffffffffffffffffffffffffffffffff1681526020019081526020016000206002016001826140599190615694565b8154811061406a57614069615200565b5b90600052602060002001600260008573ffffffffffffffffffffffffffffffffffffffff1673ffffffffffffffffffffffffffffffffffffffff16815260200190815260200160002060020182815481106140c8576140c7615200565b5b9060005260206000200190816140de91906154d8565b5080806140ea9061582d565b915050613fb1565b50600260008373ffffffffffffffffffffffffffffffffffffffff1673ffffffffffffffffffffffffffffffffffffffff168152602001908152602001600020600201805480614145576141446156fc565b5b600190038181906000526020600020016000614161919061435a565b905582600385604051614174919061575c565b908152602001604051809103902060006101000a81548173ffffffffffffffffffffffffffffffffffffffff021916908373ffffffffffffffffffffffffffffffffffffffff16021790555050505050565b6040518060e00160405280600073ffffffffffffffffffffffffffffffffffffffff168152602001600073ffffffffffffffffffffffffffffffffffffffff1681526020016060815260200160001515815260200160608152602001600081526020016000151581525090565b604051806101000160405280600073ffffffffffffffffffffffffffffffffffffffff168152602001600073ffffffffffffffffffffffffffffffffffffffff1681526020016060815260200160608152602001606081526020016000815260200160608152602001600081525090565b6040518060c00160405280600073ffffffffffffffffffffffffffffffffffffffff1681526020016060815260200160001515815260200160608152602001600081526020016000151581525090565b6040518060c00160405280600073ffffffffffffffffffffffffffffffffffffffff168152602001600073ffffffffffffffffffffffffffffffffffffffff16815260200160608152602001600015158152602001606081526020016000151581525090565b508054614366906151cf565b6000825580601f106143785750614397565b601f016020900490600052602060002090810190614396919061439a565b5b50565b5b808211156143b357600081600090555060010161439b565b5090565b6000819050919050565b6143ca816143b7565b82525050565b60006020820190506143e560008301846143c1565b92915050565b6000604051905090565b600080fd5b600080fd5b600073ffffffffffffffffffffffffffffffffffffffff82169050919050565b600061442a826143ff565b9050919050565b61443a8161441f565b811461444557600080fd5b50565b60008135905061445781614431565b92915050565b600060208284031215614473576144726143f5565b5b600061448184828501614448565b91505092915050565b6144938161441f565b82525050565b600081519050919050565b600082825260208201905092915050565b60005b838110156144d35780820151818401526020810190506144b8565b60008484015250505050565b6000601f19601f8301169050919050565b60006144fb82614499565b61450581856144a4565b93506145158185602086016144b5565b61451e816144df565b840191505092915050565b600060a08201905061453e600083018861448a565b61454b602083018761448a565b818103604083015261455d81866144f0565b905061456c60608301856143c1565b61457960808301846143c1565b9695505050505050565b61458c816143b7565b811461459757600080fd5b50565b6000813590506145a981614583565b92915050565b6000602082840312156145c5576145c46143f5565b5b60006145d38482850161459a565b91505092915050565b60008115159050919050565b6145f1816145dc565b82525050565b600060e08201905061460c600083018a61448a565b614619602083018961448a565b818103604083015261462b81886144f0565b905061463a60608301876145e8565b818103608083015261464c81866144f0565b905061465b60a08301856143c1565b61466860c08301846145e8565b98975050505050505050565b6000806040838503121561468b5761468a6143f5565b5b600061469985828601614448565b92505060206146aa8582860161459a565b9150509250929050565b6146bd8161441f565b82525050565b600082825260208201905092915050565b60006146df82614499565b6146e981856146c3565b93506146f98185602086016144b5565b614702816144df565b840191505092915050565b614716816145dc565b82525050565b614725816143b7565b82525050565b600060e08301600083015161474360008601826146b4565b50602083015161475660208601826146b4565b506040830151848203604086015261476e82826146d4565b9150506060830151614783606086018261470d565b506080830151848203608086015261479b82826146d4565b91505060a08301516147b060a086018261471c565b5060c08301516147c360c086018261470d565b508091505092915050565b600060208201905081810360008301526147e8818461472b565b905092915050565b6147f9816145dc565b811461480457600080fd5b50565b600081359050614816816147f0565b92915050565b600080fd5b600080fd5b7f4e487b7100000000000000000000000000000000000000000000000000000000600052604160045260246000fd5b61485e826144df565b810181811067ffffffffffffffff8211171561487d5761487c614826565b5b80604052505050565b60006148906143eb565b905061489c8282614855565b919050565b600067ffffffffffffffff8211156148bc576148bb614826565b5b6148c5826144df565b9050602081019050919050565b82818337600083830152505050565b60006148f46148ef846148a1565b614886565b9050828152602081018484840111156149105761490f614821565b5b61491b8482856148d2565b509392505050565b600082601f8301126149385761493761481c565b5b81356149488482602086016148e1565b91505092915050565b60008060006060848603121561496a576149696143f5565b5b60006149788682870161459a565b935050602061498986828701614807565b925050604084013567ffffffffffffffff8111156149aa576149a96143fa565b5b6149b686828701614923565b9150509250925092565b6000602082840312156149d6576149d56143f5565b5b600082013567ffffffffffffffff8111156149f4576149f36143fa565b5b614a0084828501614923565b91505092915050565b60008060408385031215614a2057614a1f6143f5565b5b600083013567ffffffffffffffff811115614a3e57614a3d6143fa565b5b614a4a85828601614923565b9250506020614a5b85828601614448565b9150509250929050565b6000602082019050614a7a600083018461448a565b92915050565b60006020820190508181036000830152614a9a81846144f0565b905092915050565b600081519050919050565b600082825260208201905092915050565b6000819050602082019050919050565b6000614ada83836146d4565b905092915050565b6000602082019050919050565b6000614afa82614aa2565b614b048185614aad565b935083602082028501614b1685614abe565b8060005b85811015614b525784840389528151614b338582614ace565b9450614b3e83614ae2565b925060208a01995050600181019050614b1a565b50829750879550505050505092915050565b600081519050919050565b600082825260208201905092915050565b6000819050602082019050919050565b600060e083016000830151614ba860008601826146b4565b506020830151614bbb60208601826146b4565b5060408301518482036040860152614bd382826146d4565b9150506060830151614be8606086018261470d565b5060808301518482036080860152614c0082826146d4565b91505060a0830151614c1560a086018261471c565b5060c0830151614c2860c086018261470d565b508091505092915050565b6000614c3f8383614b90565b905092915050565b6000602082019050919050565b6000614c5f82614b64565b614c698185614b6f565b935083602082028501614c7b85614b80565b8060005b85811015614cb75784840389528151614c988582614c33565b9450614ca383614c47565b925060208a01995050600181019050614c7f565b50829750879550505050505092915050565b600081519050919050565b600082825260208201905092915050565b6000819050602082019050919050565b600060c083016000830151614d0d60008601826146b4565b5060208301518482036020860152614d2582826146d4565b9150506040830151614d3a604086018261470d565b5060608301518482036060860152614d5282826146d4565b9150506080830151614d67608086018261471c565b5060a0830151614d7a60a086018261470d565b508091505092915050565b6000614d918383614cf5565b905092915050565b6000602082019050919050565b6000614db182614cc9565b614dbb8185614cd4565b935083602082028501614dcd85614ce5565b8060005b85811015614e095784840389528151614dea8582614d85565b9450614df583614d99565b925060208a01995050600181019050614dd1565b50829750879550505050505092915050565b600061010083016000830151614e3460008601826146b4565b506020830151614e4760208601826146b4565b5060408301518482036040860152614e5f8282614aef565b91505060608301518482036060860152614e7982826146d4565b91505060808301518482036080860152614e938282614c54565b91505060a0830151614ea860a086018261471c565b5060c083015184820360c0860152614ec08282614da6565b91505060e0830151614ed560e086018261471c565b508091505092915050565b60006020820190508181036000830152614efa8184614e1b565b905092915050565b600060c082019050614f17600083018961448a565b8181036020830152614f2981886144f0565b9050614f3860408301876145e8565b8181036060830152614f4a81866144f0565b9050614f5960808301856143c1565b614f6660a08301846145e8565b979650505050505050565b600060c082019050614f86600083018961448a565b614f93602083018861448a565b8181036040830152614fa581876144f0565b9050614fb460608301866145e8565b8181036080830152614fc681856144f0565b9050614fd560a08301846145e8565b979650505050505050565b60008060408385031215614ff757614ff66143f5565b5b600061500585828601614448565b925050602083013567ffffffffffffffff811115615026576150256143fa565b5b61503285828601614923565b9150509250929050565b600060c08301600083015161505460008601826146b4565b506020830151848203602086015261506c82826146d4565b9150506040830151615081604086018261470d565b506060830151848203606086015261509982826146d4565b91505060808301516150ae608086018261471c565b5060a08301516150c160a086018261470d565b508091505092915050565b600060208201905081810360008301526150e6818461503c565b905092915050565b600060c08301600083015161510660008601826146b4565b50602083015161511960208601826146b4565b506040830151848203604086015261513182826146d4565b9150506060830151615146606086018261470d565b506080830151848203608086015261515e82826146d4565b91505060a083015161517360a086018261470d565b508091505092915050565b6000602082019050818103600083015261519881846150ee565b905092915050565b7f4e487b7100000000000000000000000000000000000000000000000000000000600052602260045260246000fd5b600060028204905060018216806151e757607f821691505b6020821081036151fa576151f96151a0565b5b50919050565b7f4e487b7100000000000000000000000000000000000000000000000000000000600052603260045260246000fd5b60008190508160005260206000209050919050565b60006020601f8301049050919050565b600082821b905092915050565b6000600883026152917fffffffffffffffffffffffffffffffffffffffffffffffffffffffffffffffff82615254565b61529b8683615254565b95508019841693508086168417925050509392505050565b6000819050919050565b60006152d86152d36152ce846143b7565b6152b3565b6143b7565b9050919050565b6000819050919050565b6152f2836152bd565b6153066152fe826152df565b848454615261565b825550505050565b600090565b61531b61530e565b6153268184846152e9565b505050565b5b8181101561534a5761533f600082615313565b60018101905061532c565b5050565b601f82111561538f576153608161522f565b61536984615244565b81016020851015615378578190505b61538c61538485615244565b83018261532b565b50505b505050565b600082821c905092915050565b60006153b260001984600802615394565b1980831691505092915050565b60006153cb83836153a1565b9150826002028217905092915050565b6153e482614499565b67ffffffffffffffff8111156153fd576153fc614826565b5b61540782546151cf565b61541282828561534e565b600060209050601f8311600181146154455760008415615433578287015190505b61543d85826153bf565b8655506154a5565b601f1984166154538661522f565b60005b8281101561547b57848901518255600182019150602085019450602081019050615456565b868310156154985784890151615494601f8916826153a1565b8355505b6001600288020188555050505b505050505050565b6000815490506154bc816151cf565b9050919050565b60008190508160005260206000209050919050565b8181036154e65750506155be565b6154ef826154ad565b67ffffffffffffffff81111561550857615507614826565b5b61551282546151cf565b61551d82828561534e565b6000601f83116001811461554c576000841561553a578287015490505b61554485826153bf565b8655506155b7565b601f19841661555a876154c3565b96506155658661522f565b60005b8281101561558d57848901548255600182019150600185019450602081019050615568565b868310156155aa57848901546155a6601f8916826153a1565b8355505b6001600288020188555050505b5050505050505b565b600081905092915050565b600081546155d8816151cf565b6155e281866155c0565b945060018216600081146155fd576001811461561257615645565b60ff1983168652811515820286019350615645565b61561b8561522f565b60005b8381101561563d5781548189015260018201915060208101905061561e565b838801955050505b50505092915050565b600061565a82846155cb565b915081905092915050565b7f4e487b7100000000000000000000000000000000000000000000000000000000600052601160045260246000fd5b600061569f826143b7565b91506156aa836143b7565b92508282019050808211156156c2576156c1615665565b5b92915050565b60006156d3826143b7565b91506156de836143b7565b92508282039050818111156156f6576156f5615665565b5b92915050565b7f4e487b7100000000000000000000000000000000000000000000000000000000600052603160045260246000fd5b600061573682614499565b61574081856155c0565b93506157508185602086016144b5565b80840191505092915050565b6000615768828461572b565b915081905092915050565b600081905092915050565b60008190508160005260206000209050919050565b600081546157a0816151cf565b6157aa8186615773565b945060018216600081146157c557600181146157da5761580d565b60ff198316865281151582028601935061580d565b6157e38561577e565b60005b83811015615805578154818901526001820191506020810190506157e6565b838801955050505b50505092915050565b60006158228284615793565b915081905092915050565b6000615838826143b7565b91507fffffffffffffffffffffffffffffffffffffffffffffffffffffffffffffffff820361586a57615869615665565b5b60018201905091905056fea2646970667358221220d72720903341cd27ba77dd9a9568be63608441162787ec696e7ccd971667f12664736f6c63430008110033",
  "linkReferences": {},
  "deployedLinkReferences": {}
}